S015000041546D65676131365F574946492E73726563EB
S11300000C942A000C9447000C9447000C9447006D
S11300100C9447000C9447000C9447000C94470040
S11300200C9420040C9447000C9447000C94E903AE
S11300300C9447000C9447000C9447000C94470020
S11300400C9447000C9447000C9447000C94470010
S11300500C94470011241FBECFE5D4E0DEBFCDBF12
S113006012E0A0E6B0E0E8EBF6E102C005900D92E4
S1130070AC30B107D9F723E0ACE0B2E001C01D9287
S1130080A73BB207E1F70E949C040C945A0B0C9412
S113009000002F923F924F925F926F927F928F92C5
S11300A09F92AF92BF92CF92DF92EF92FF920F9303
S11300B01F93CF93DF93CDB7DEB72C970FB6F89489
S11300C0DEBF0FBECDBF9E838D832DB73EB73C8769
S11300D02B87FC0101900020E9F731975F01A81AF2
S11300E0B90ABB24A5014150510958874F838DB7E4
S11300F09EB78A199B090FB6F8949EBF0FBE8DBF99
S1130100ADB7BEB711964D018091120290911302C2
S1130110A0911402B0911502803F984DAF4FBF4F8C
S113012061F41092120210921302109214021092AF
S1130130150282E08093B6039BC019821A821B8247
S11301401C822F803884280C391C94012F5F3F4F68
S11301503A8729878091B603843011F41092B6034C
S1130160E6E1F3E001900020E9F73197CF018651F1
S113017093406C01E12CF12CC114D104E104F1048D
S113018009F451C08FEC97E00197F1F700C000002B
S113019029813A814B815C812F5F3F4F4F4F5F4FE5
S11301A029833A834B835C83E6E1F3E001900020EA
S11301B0E9F73197CF0186519340A0E0B0E0C8162B
S11301C0D906EA06FB0679F506E113E0412C512C29
S11301D032014F81588569857A85C4010E943608A9
S11301E0D8018D918D01F1018083A5016D817E81FE
S11301F0C4010E944808892B61F4109212021092E3
S11302001302109214021092150281E08093B60337
S11302102FC0FFEF4F1A5F0A6F0A7F0A4C145D0468
S11302206E047F04B1F68FEC97E00197F1F700C0FC
S1130230000029813A814B815C812F5F3F4F4F4FF2
S11302405F4F29833A834B835C83809112029091A0
S11302501302A0911402B0911502805F984DAF4F24
S1130260BF4F281739074A075B0708F473CF59CFE4
S11302704B855C850FB6F8945EBF0FBE4DBF2C96C0
S11302800FB6F894DEBF0FBECDBFDF91CF911F91A3
S11302900F91FF90EF90DF90CF90BF90AF909F9021
S11302A08F907F906F905F904F903F902F90089524
S11302B080EAE6E1F3E0DF011D928A95E9F7109206
S11302C01902109218021092170210921602089541
S11302D0CF93DF93EC0184E08093B603CE010E94B8
S11302E049008091B6038823C9F3DF91CF91089523
S11302F00E94680181E09091B603923009F480E095
S113030008950F931F93CF93DF938C01EB010E9409
S11303105801C8010E94C1058EEC90E00E94C105FD
S1130320CE010E947801DF91CF911F910F91089522
S11303300F931F93CF93DF93CDB7DEB764970FB6B8
S1130340F894DEBF0FBECDBF8E010F5F1F4F94E147
S1130350F80111929A95E9F71F928F938DE690E038
S11303609F938F931F930F930E9470081C8A66E6D5
S113037070E0C8010E9481010F900F900F900F90C0
S11303800F900F9064960FB6F894DEBF0FBECDBFEA
S1130390DF91CF911F910F9108950F931F93CF93E6
S11303A0DF93CDB7DEB764970FB6F894DEBF0FBE08
S11303B0CDBF8E010F5F1F4F94E1F80111929A9502
S11303C0E9F71F928F938BE790E09F938F931F938E
S11303D00F930E9470081C8A66E670E0C8010E94B0
S11303E081010F900F900F900F900F900F906496D3
S11303F00FB6F894DEBF0FBECDBFDF91CF911F9132
S11304000F910895CF93C5E066E670E088E890E028
S11304100E94810181110AC066E670E08DE890E0D7
S11304200E948101811102C0C15071F7CF910895DA
S11304300F931F93CF93DF93CDB7DEB764970FB6B7
S1130440F894DEBF0FBECDBF8E010F5F1F4F94E146
S1130450F80111929A95E9F71F928F938EE990E033
S11304609F938F931F930F930E9470081C8A66E6D4
S113047070E0C8010E9481010F900F900F900F90BF
S11304800F900F9064960FB6F894DEBF0FBECDBFE9
S1130490DF91CF911F910F9108950F931F93CF93E5
S11304A0DF93CDB7DEB7EC970FB6F894DEBF0FBE7F
S11304B0CDBF8E010F5F1F4F2CE3F80111922A95D7
S11304C0E9F77F936F939F938F938BEA90E09F93C9
S11304D08F931F930F930E9470081CAE6EEB70E015
S11304E0C8010E9481010FB6F894DEBF0FBECDBFD4
S11304F0811122C061ED70E086E193E00E9456080C
S1130500892BE1F46AED70E086E193E00E945608DD
S1130510892BB1F463EE70E086E193E00E94560803
S1130520892B81F46CEE70E086E193E00E9456081A
S1130530892B51F485E009C080E007C081E005C043
S113054082E003C083E001C084E0EC960FB6F89427
S1130550DEBF0FBECDBFDF91CF911F910F910895E4
S113056066E670E085EF90E00E94810162E071E050
S113057086E193E00E945608892BD1F46BE071E088
S113058086E193E00E945608892BA1F464E171E0AE
S113059086E193E00E945608892B71F46DE171E0C5
S11305A086E193E00E945608892B41F484E0089583
S11305B080E0089581E0089582E0089583E008953D
S11305C0DF92EF92FF920F931F93CF93DF93CDB7F8
S11305D0DEB7EC970FB6F894DEBF0FBECDBFD82EB2
S11305E0162F072FF42EE52EFE0131968CE3DF0142
S11305F01D928A95E9F766E271E08FE291E00E942C
S113060081018823A1F0EF92FF920F931F938AE355
S113061091E09F938F93CE0101969F938F930E94B5
S113062070080FB6F894DEBF0FBECDBF15C0EF92B1
S1130630FF920F931F931F92DF9284E591E09F93A3
S11306408F93CE0101969F938F930E9470080FB6EB
S1130650F894DEBF0FBECDBF63E771E0CE01019613
S11306600E948101811106C08091B603823021F07D
S113067085E003C081E001C082E0EC960FB6F894F7
S1130680DEBF0FBECDBFDF91CF911F910F91FF90C1
S1130690EF90DF900895EF92FF920F931F93CF9303
S11306A0DF93CDB7DEB764970FB6F894DEBF0FBE05
S11306B0CDBF8C01CE0101967C0184E1F70111923A
S11306C08A95E9F7F80101900020E9F7CF01801B32
S11306D0910B01969F938F938DE791E09F938F9356
S11306E0FF92EF920E9470081C8A6BE871E0C701C8
S11306F00E94810163E971E0C8010E9481010F90A9
S11307000F900F900F900F900F90811106C0809161
S1130710B603823021F085E003C081E001C082E0AD
S113072064960FB6F894DEBF0FBECDBFDF91CF91B4
S11307301F910F91FF90EF9008958091180290916E
S113074019022091160230911702821B930B08950F
S1130750209116023091170280911802909119028B
S11307602817390784F480911602909117029C018E
S11307702F5F3F4F3093170220931602FC01EA5E6D
S1130780FC4F808108950E94580180E008950F93E2
S11307901F93CF93DF932FEF30E742E02150304097
S11307A04040E1F700C00000C82FD92F00E010E05E
S11307B005C00F5F1F4F0E94A80389930E949D03E9
S11307C018161906B4F3C801DF91CF911F910F9148
S11307D008951F920F920FB60F9211242F938F93A7
S11307E09F93EF93FF932FB7F894E0911802F09141
S11307F019028CB1EA5EFC4F8083809118029091BB
S1130800190201969093190280931802809118029C
S113081090911902803A910541F4109219021092B4
S1130820180210921702109216022FBFFF91EF9137
S11308309F918F912F910F900FBE0F901F9018953D
S11308401F920F920FB60F9211242F933F934F9341
S11308505F938F939F93EF93FF9320910C023091BA
S11308600D028091100290911102281739073CF46F
S113087080910C0290910D028D37910521F4109214
S11308800D0210920C022091640030916500809159
S11308900C0290910D02AC014F5F5F4F50930D021B
S11308A040930C02F901E80FF91F808188BB809105
S11308B06000909161009DBD8CBDFF91EF919F916F
S11308C08F915F914F913F912F910F900FBE0F9099
S11308D01F90189580916000909161009DBD8CBD22
S11308E01FBC85E08EBD84E089BF0895CF93DF935C
S11308F0CDB7DEB7C659D1090FB6F894DEBF0FBE27
S1130900CDBFCE01019626E9FC0111922A95E9F7A3
S113091021E1EBEAF1E0DC0101900D922A95E1F787
S11309200E944B03CA56DF4F0FB6F894DEBF0FBECA
S1130930CDBFDF91CF910895CF93DF93CDB7DEB7CD
S1130940C659D1090FB6F894DEBF0FBECDBF60E023
S113095072EC81E090E00E9499050E946A04E091A3
S11309606400F09165001FEF1083E0916400F09142
S11309706500118282E090E090931102809310024E
S113098010920D0210920C0278948CEB91E00E946C
S1130990C10517BB18BA01E010E0F12C13C098018F
S11309A02F5F3F4F00FF02C08F2D01C085E588BB3C
S11309B04FEF84E39CE0415080409040E1F700C059
S11309C0000089010E940202882349F38FEF88BB4B
S11309D083E00E94180280E00E94CD0180E00E9422
S11309E098010E94B002833031F461ED71E08CED26
S11309F091E00E944D02EFEFF1E12AE7E150F0406F
S1130A002040E1F700C0000045EE51E06BEE71E0DC
S1130A1080E00E94E0028AEF91E00E94C1050E94FA
S1130A2076040F2EF6E9FF2EF02D8E010F5F1F4F77
S1130A300E94B002833039F461ED71E08CED91E0F5
S1130A400E944D0209C0823039F445EE51E06BEE4C
S1130A5071E080E00E94E002F8012F2D11922A95A6
S1130A60E9F7C8010E94C703181619060CF057C00D
S1130A7089818230B1F018F4813061F0D9CF8330AC
S1130A8019F0843059F1D4CF8A8190E018161906F0
S1130A906CF01FC08A8190E09093610080936000A5
S1130AA0C7CF10920D0210920C02C2CFDE01139632
S1130AB020E030E0E0916200F0916300E20FF31F68
S1130AC08D9180832F5F3F4F8A8190E028173907EB
S1130AD08CF390930F0280930E02AACF809164004E
S1130AE09091650090931503809314032091620004
S1130AF03091630030936500209364009093630009
S1130B008093620080910E0290910F0290931102E3
S1130B108093100210920D0210920C0289CF4FEFB5
S1130B2080E792E0415080409040E1F700C000002F
S1130B307FCF599A2AB128692AB920B5266820BDE1
S1130B400E94E50620E030E040E051E40E94730793
S1130B509B01AC0160E074E284EF9AE40E943D06DC
S1130B6020E030E040E85FE30E94D0050E94E00707
S1130B700E94AF0669B970BD08958CB95D9BFECF24
S1130B800895CF93DF93EC018881882331F0219677
S1130B900E94BD0589918111FBCFDF91CF9108950A
S1130BA05058BB27AA270E94E8050C9439070E94D5
S1130BB02B0738F00E94320720F039F49F3F19F4D4
S1130BC026F40C9428070EF4E095E7FB0C94220716
S1130BD0E92F0E944A0758F3BA176207730784077C
S1130BE0950720F079F4A6F50C946C070EF4E095C3
S1130BF00B2EBA2FA02D0B01B90190010C01CA01D3
S1130C00A0011124FF27591B99F0593F50F4503E7D
S1130C1068F11A16F040A22F232F342F4427585F6F
S1130C20F3CF469537952795A795F0405395C9F787
S1130C307EF41F16BA0B620B730B840BBAF091503F
S1130C40A1F0FF0FBB1F661F771F881FC2F70EC0DE
S1130C50BA0F621F731F841F48F4879577956795B1
S1130C60B795F7959E3F08F0B0CF9395880F08F09D
S1130C709927EE0F9795879508950E9451060C9435
S1130C8039070E94320758F00E942B0740F029F4DC
S1130C905F3F29F00C94220751110C946D070C94BA
S1130CA028070E944A0768F39923B1F3552391F367
S1130CB0951B550BBB27AA2762177307840738F0C7
S1130CC09F5F5F4F220F331F441FAA1FA9F335D024
S1130CD00E2E3AF0E0E832D091505040E695001CD8
S1130CE0CAF72BD0FE2F29D0660F771F881FBB1F92
S1130CF0261737074807AB07B0E809F0BB0B802D70
S1130D00BF01FF2793585F4F3AF09E3F510578F09B
S1130D100C9422070C946D075F3FE4F3983ED4F3E0
S1130D20869577956795B795F7959F5FC9F7880F6F
S1130D30911D9695879597F90895E1E0660F771FC1
S1130D40881FBB1F621773078407BA0720F0621B52
S1130D50730B840BBA0BEE1F88F7E09508950E947D
S1130D60B6066894B1110C946D0708950E94520759
S1130D7088F09F5798F0B92F9927B751B0F0E1F058
S1130D80660F771F881F991F1AF0BA95C9F714C008
S1130D90B13091F00E946C07B1E008950C946C0797
S1130DA0672F782F8827B85F39F0B93FCCF3869541
S1130DB077956795B395D9F73EF49095809570959E
S1130DC061957F4F8F4F9F4F0895E89409C097FB1B
S1130DD03EF490958095709561957F4F8F4F9F4F0E
S1130DE09923A9F0F92F96E9BB279395F695879552
S1130DF077956795B795F111F8CFFAF4BB0F11F415
S1130E0060FF1BC06F5F7F4F8F4F9F4F16C08823BB
S1130E1011F096E911C0772321F09EE8872F762FF1
S1130E2005C0662371F096E8862F70E060E02AF032
S1130E309A95660F771F881FDAF7880F969587951E
S1130E4097F9089597F99F6780E870E060E0089546
S1130E509FEF80EC089500240A94161617061806CE
S1130E600906089500240A941216130614060506AA
S1130E700895092E0394000C11F4882352F0BB0F3B
S1130E8040F4BF2B11F460FF04C06F5F7F4F8F4F9E
S1130E909F4F089557FD9058440F551F59F05F3FD9
S1130EA071F04795880F97FB991F61F09F3F79F088
S1130EB087950895121613061406551FF2CF46950A
S1130EC0F1DF08C0161617061806991FF1CF86958C
S1130ED07105610508940895E894BB276627772770
S1130EE0CB0197F908950E9486070C9439070E9454
S1130EF02B0738F00E94320720F0952311F00C9450
S1130F0022070C94280711240C946D070E944A07A9
S1130F1070F3959FC1F3950F50E0551F629FF00148
S1130F20729FBB27F00DB11D639FAA27F00DB11D61
S1130F30AA1F649F6627B00DA11D661F829F2227EA
S1130F40B00DA11D621F739FB00DA11D621F839F71
S1130F50A00D611D221F749F3327A00D611D231F47
S1130F60849F600D211D822F762F6A2F11249F5795
S1130F7050409AF0F1F088234AF0EE0FFF1FBB1F98
S1130F80661F771F881F91505040A9F79E3F510557
S1130F9080F00C9422070C946D075F3FE4F3983EB5
S1130FA0D4F3869577956795B795F795E7959F5F01
S1130FB0C1F7FE2B880F911D9695879597F9089593
S1130FC00E945207E8F09E37E8F09639B8F49E384C
S1130FD048F4672F782F8827985FF9CF86957795FF
S1130FE0679593959539D0F3B62FB1706B0F711D3A
S1130FF0811D20F487957795679593950C94040843
S11310000C941F080C946D07882371F4772321F046
S11310109850872B762F07C0662311F499270DC0AB
S11310209051862B70E060E02AF09A95660F771F46
S1131030881FDAF7880F9695879597F908959F3F4B
S113104031F0915020F4879577956795B795880F7F
S1131050911D9695879597F90895FB01DC0102C0CF
S113106001900D9241505040D8F7089568177907C0
S113107068F4FB01DC01E40FF51FA40FB51F02C0E7
S113108002900E9241505040D8F708950C942D08C8
S1131090FB01DC014150504030F08D9101908019EA
S11310A019F40020B9F7881B990B0895FB0151919D
S11310B05523A9F0BF01DC014D9145174111E1F71A
S11310C059F4CD010190002049F04D914015411192
S11310D0C9F3FB014111EFCF81E090E0019708953E
S11310E0AEE0B0E0E6E7F8E00C94310B0D891E8920
S11310F086E08C831A8309838FEF9FE79E838D8319
S1131100AE01475E5F4F6F89788DCE0101960E94D4
S11311109208EF81F885E00FF11F10822E96E4E02B
S11311200C944D0BABE0B0E0E8E9F8E00C94230B31
S11311306C017B018A01FC0117821682838181FF85
S1131140CCC1CE0101963C01F6019381F70193FDD8
S1131150859193FF81917F01882309F4BAC1853277
S113116039F493FD859193FF81917F01853229F4B0
S1131170B60190E00E94890AE7CF912C212C312CF2
S1131180FFE1F315D8F08B3279F038F4803279F03E
S11311908332A1F4232D20611DC08D3261F0803390
S11311A069F4232D216016C0832D8260382EE32D2F
S11311B0E4603E2E2AC0F32DF8601DC037FC2DC01C
S11311C020ED280F2A3040F08E32B9F436FC81C16C
S11311D0232D2064322E19C036FE06C08AE0989E64
S11311E0200D1124922E11C0EAE02E9E200D112410
S11311F0222EF32DF0623F2E08C08C3621F4832D6D
S11312008068382E02C0883641F4F70193FD859139
S113121093FF81917F018111B3CF982F9F7D9554C6
S1131220933028F40C5F1F4F9FE399830DC08336DE
S113123031F0833771F0833509F059C021C0F801CA
S1131240808189830E5F1F4F88248394912C5301DE
S113125013C02801F2E04F0E511CF801A080B180A8
S113126036FE03C0692D70E002C06FEF7FEFC50149
S11312700E947E0A4C018201F32DFF773F2E16C097
S1131280280122E0420E511CF801A080B18036FEF4
S113129003C0692D70E002C06FEF7FEFC5010E94AB
S11312A0730A4C01F32DF0683F2E820133FC1BC0FE
S11312B0822D90E088169906B0F4B60180E290E0A1
S11312C00E94890A2A94F4CFF50137FC859137FEF0
S11312D081915F01B60190E00E94890A21102A944D
S11312E021E0821A91088114910471F7E8C08436D0
S11312F011F0893641F5F80137FE07C0608171812C
S1131300828193810C5F1F4F08C060817181072E19
S1131310000C880B990B0E5F1F4FF32DFF763F2EA9
S113132097FF09C090958095709561957F4F8F4F79
S11313309F4FF0683F2E2AE030E0A3010E94C50AC7
S1131340882E861845C0853731F4232D2F7EB22E82
S11313502AE030E025C0932D997FB92E8F36C1F055
S113136018F4883579F0B5C0803719F0883721F042
S1131370B0C0E92FE061BE2EB4FE0DC0FB2DF460B9
S1131380BF2E09C034FE0AC0292F2660B22E06C023
S113139028E030E005C020E130E002C020E132E086
S11313A0F801B7FE07C060817181828193810C5F6F
S11313B01F4F06C06081718180E090E00E5F1F4F77
S11313C0A3010E94C50A882E8618FB2DFF773F2EA5
S11313D036FE0DC0232D2E7FA22E891458F434FE20
S11313E00BC032FC09C0832D8E7EA82E05C0B82CFC
S11313F0A32C03C0B82C01C0B92CA4FE0FC0FE015D
S1131400E80DF11D8081803321F49A2D997EA92E57
S113141009C0A2FE06C0B394B39404C08A2D867892
S113142009F0B394A3FC11C0A0FE06C0B21488F462
S1131430280C922C9B180EC0B21460F4B60180E202
S113144090E00E94890AB394F7CFB21418F42B18D1
S113145002C0982C212CA4FE10C0B60180E390E0B9
S11314600E94890AA2FE17C0A1FC03C088E790E08D
S113147002C088E590E0B6010CC08A2D867859F048
S1131480A1FE02C08BE201C080E2A7FC8DE2B6019E
S113149090E00E94890A891438F4B60180E390E050
S11314A00E94890A9A94F7CF8A94F301E80DF11DFA
S11314B08081B60190E00E94890A8110F5CF222034
S11314C009F442CEB60180E290E00E94890A2A948F
S11314D0F6CFF6018681978102C08FEF9FEF2B969E
S11314E0E2E10C943F0BFC01059061507040011047
S11314F0D8F7809590958E0F9F1F0895FC01615039
S1131500704001900110D8F7809590958E0F9F1F21
S113151008950F931F93CF93DF93FB01238121FD44
S113152003C08FEF9FEF2CC022FF16C04681578166
S1131530248135814217530744F4A081B1819D0170
S11315402F5F3F4F318320838C93268137812F5F18
S11315503F4F3783268314C08B01EC01FB010084C9
S1131560F185E02D0995892BE1F6D80116968D9128
S11315709C911797019617969C938E931697CE017C
S1131580DF91CF911F910F910895FA01AA27283076
S113159051F1203181F1E8946F936E7F6E5F7F4F3C
S11315A08F4F9F4FAF4FB1E03ED0B4E03CD0670FB8
S11315B0781F891F9A1FA11D680F791F8A1F911D0B
S11315C0A11D6A0F711D811D911DA11D20D009F45B
S11315D068943F912AE0269F11243019305D31939D
S11315E0DEF6CF010895462F4770405D4193B3E086
S11315F00FD0C9F7F6CF462F4F70405D4A3318F02D
S1131600495D31FD4052419302D0A9F7EACFB4E0DD
S1131610A6959795879577956795BA95C9F7009795
S11316206105710508959B01AC010A2E0694579536
S1131630479537952795BA95C9F7620F731F841F8D
S1131640951FA01D08952F923F924F925F926F9223
S11316507F928F929F92AF92BF92CF92DF92EF923E
S1131660FF920F931F93CF93DF93CDB7DEB7CA1BBF
S1131670DB0B0FB6F894DEBF0FBECDBF09942A88EA
S1131680398848885F846E847D848C849B84AA8492
S1131690B984C884DF80EE80FD800C811B81AA811F
S11316A0B981CE0FD11D0FB6F894DEBF0FBECDBFEA
S10B16B0ED010895F894FFCF49
S11316B888131A0297020D0A4F4B0D0A0041542B46
S11316C84349504D4F44453D25640041542B4349FB
S11316D8504D55583D25640041544530004154004F
S11316E841542B434950434C4F53453D31004154D9
S11316F82B43574D4F44453D25640041542B4357D4
S11317084A41503D222573222C22257322000D0ABA
S11317185749464920434F4E4E45435445440D0AC4
S1131728002B43574A41503A31002B43574A415002
S11317383A32002B43574A41503A33002B43574A15
S113174841503A340041542B434950535441545561
S113175853005354415455533A3200535441545549
S1131768533A33005354415455533A340053544173
S11317785455533A35004349504D55583A30004171
S1131788542B4349504D55583F0041542B4349501D
S113179853544152543D22544350222C222573223F
S11317A82C25730041542B43495053544152543D02
S11317B8222564222C22544350222C222573222CC5
S11317C8257300434F4E4E4543540D0A0041542B94
S11317D843495053454E443D2564000D0A4F4B0D73
S11317E80A3E000D0A53454E44204F4B0D0A00484B
S11317F865692076657264656E21004B4C41522000
S1131808464F522050524F4752414D0048454920B7
S113181856454C4B4F4D4D454E2056455244454E2A
S113182800666C65736B6565736B650058706572EB
S11318386961207A003130303030003139322E314C
S113184836382E34332E323534005374617274654D
S10F185872206D61696E6C6F6F702E0061
S9030000FC
