:100000000C942A000C9447000C9447000C94470071
:100010000C9447000C9447000C9447000C94470044
:100020000C9454040C9447000C9447000C941D0449
:100030000C9447000C9447000C9447000C94470024
:100040000C9447000C9447000C9447000C94470014
:100050000C94470011241FBECFE5D4E0DEBFCDBF16
:1000600012E0A0E6B0E0EEE9F6E102C005900D92E4
:10007000A431B107D9F723E0A4E1B2E001C01D9299
:10008000A034B207E1F70E94A2040C944D0B0C942B
:1000900000002F923F924F925F926F927F928F92C9
:1000A0009F92AF92BF92CF92DF92EF92FF920F9307
:1000B0001F93CF93DF93CDB7DEB72C970FB6F8948D
:1000C000DEBF0FBECDBF9E838D832DB73EB73C876D
:1000D0002B87FC0101900020E9F731975F01A81AF6
:1000E000B90ABB24A5014150510958874F838DB7E8
:1000F0009EB78A199B090FB6F8949EBF0FBE8DBF9D
:10010000ADB7BEB711964D0180911A0290911B02B6
:10011000A0911C02B0911D02803F984DAF4FBF4F80
:1001200061F410921A0210921B0210921C0210929B
:100130001D0282E080933F039BC019821A821B82BA
:100140001C822F803884280C391C94012F5F3F4F6C
:100150003A87298780913F03843011F410923F033E
:10016000EFE9F2E001900020E9F73197CF018F59D4
:1001700092406C01E12CF12CC114D104E104F10492
:1001800009F451C08FEC97E00197F1F700C000002F
:1001900029813A814B815C812F5F3F4F4F4F5F4FE9
:1001A00029833A834B835C83EFE9F2E001900020DE
:1001B000E9F73197CF018F599240A0E0B0E0C8161F
:1001C000D906EA06FB0679F50FE912E0412C512C1D
:1001D00032014F81588569857A85C4010E942908BA
:1001E000D8018D918D01F1018083A5016D817E8102
:1001F000C4010E943B08892B61F410921A021092EC
:100200001B0210921C0210921D0281E080933F039A
:100210002FC0FFEF4F1A5F0A6F0A7F0A4C145D046C
:100220006E047F04B1F68FEC97E00197F1F700C000
:10023000000029813A814B815C812F5F3F4F4F4FF6
:100240005F4F29833A834B835C8380911A0290919C
:100250001B02A0911C02B0911D02805F984DAF4F10
:10026000BF4F281739074A075B0708F473CF59CFE8
:100270004B855C850FB6F8945EBF0FBE4DBF2C96C4
:100280000FB6F894DEBF0FBECDBFDF91CF911F91A7
:100290000F91FF90EF90DF90CF90BF90AF909F9025
:1002A0008F907F906F905F904F903F902F90089528
:1002B00080EAEFE9F2E0DF011D928A95E9F71092FA
:1002C00021021092200210921F0210921E02089525
:1002D000CF93DF93EC0184E080933F03CE010E9433
:1002E000490080913F038823C9F3DF91CF9108959E
:1002F0000E94680181E090913F03923009F480E010
:1003000008950F931F93CF93DF938C01EB010E940D
:100310005801C8010E94B40586ED90E00E94B40522
:10032000CE010E947801DF91CF911F910F91089526
:100330000F931F93CF93DF93CDB7DEB7C659D10983
:100340000FB6F894DEBF0FBECDBF8E010F5F1F4FFB
:1003500026E9F80111922A95E9F79F938F9389E690
:1003600090E09F938F931F930F930E946308C8019F
:100370000E94B4050F900F900F900F900F900F9068
:10038000CA56DF4F0FB6F894DEBF0FBECDBFDF9168
:10039000CF911F910F9108950F931F93CF93DF93E8
:1003A000CDB7DEB764970FB6F894DEBF0FBECDBFF2
:1003B0008E010F5F1F4F94E1F80111929A95E9F7B2
:1003C0001F928F9385E790E09F938F931F930F93D6
:1003D0000E9463081C8A62E670E0C8010E948101E5
:1003E0000F900F900F900F900F900F9064960FB694
:1003F000F894DEBF0FBECDBFDF91CF911F910F915B
:1004000008950F931F93CF93DF93CDB7DEB7649713
:100410000FB6F894DEBF0FBECDBF8E010F5F1F4F2A
:1004200094E1F80111929A95E9F71F928F9383E86E
:1004300090E09F938F931F930F930E9463081C8AF1
:1004400062E670E0C8010E9481010F900F900F904A
:100450000F900F900F9064960FB6F894DEBF0FBE0A
:10046000CDBFDF91CF911F910F910895CF93C5E03C
:1004700062E670E080E990E00E94810181110AC08B
:1004800062E670E085E990E00E948101811102C07E
:10049000C15071F7CF9108950F931F93CF93DF93BE
:1004A000CDB7DEB764970FB6F894DEBF0FBECDBFF1
:1004B0008E010F5F1F4F94E1F80111929A95E9F7B1
:1004C0001F928F9386EA90E09F938F931F930F93D1
:1004D0000E9463081C8A62E670E0C8010E948101E4
:1004E0000F900F900F900F900F900F9064960FB693
:1004F000F894DEBF0FBECDBFDF91CF911F910F915A
:1005000008950F931F93CF93DF93CDB7DEB7EC978A
:100510000FB6F894DEBF0FBECDBF8E010F5F1F4F29
:100520002CE3F80111922A95E9F77F936F939F933B
:100530008F9383EB90E09F938F931F930F930E9471
:1005400063081CAE66EC70E0C8010E9481010FB622
:10055000F894DEBF0FBECDBF811122C069ED70E0FF
:100560008FE992E00E944908892BE1F462EE70E085
:100570008FE992E00E944908892BB1F46BEE70E09C
:100580008FE992E00E944908892B81F464EF70E0C2
:100590008FE992E00E944908892B51F485E009C057
:1005A00080E007C081E005C082E003C083E001C0B5
:1005B00084E0EC960FB6F894DEBF0FBECDBFDF919E
:1005C000CF911F910F91089562E670E08DEF90E05A
:1005D0000E9481016AE071E08FE992E00E9449087F
:1005E000892BD1F463E171E08FE992E00E94490820
:1005F000892BA1F46CE171E08FE992E00E94490837
:10060000892B71F465E271E08FE992E00E9449085C
:10061000892B41F484E0089580E0089581E00895F5
:1006200082E0089583E00895DF92EF92FF920F93A6
:100630001F93CF93DF93CDB7DEB7EC970FB6F89447
:10064000DEBF0FBECDBFD82E162F072FF42EE52EFE
:10065000FE0131968CE3DF011D928A95E9F76EE287
:1006600071E087E391E00E9481018823A1F0EF927D
:10067000FF920F931F9382E491E09F938F93CE019B
:1006800001969F938F930E9463080FB6F894DEBF84
:100690000FBECDBF15C0EF92FF920F931F931F9215
:1006A000DF928CE591E09F938F93CE0101969F930B
:1006B0008F930E9463080FB6F894DEBF0FBECDBFC4
:1006C0006BE771E0CE0101960E948101811106C0A5
:1006D00080913F03823021F085E003C081E001C0BA
:1006E00082E0EC960FB6F894DEBF0FBECDBFDF916F
:1006F000CF911F910F91FF90EF90DF900895EF92AF
:10070000FF920F931F93CF93DF93CDB7DEB764971C
:100710000FB6F894DEBF0FBECDBF8C01CE0101969F
:100720007C0184E1F70111928A95E9F7F8010190C3
:100730000020E9F7CF01801B910B01969F938F93C7
:1007400085E891E09F938F93FF92EF920E94630858
:100750001C8A63E971E0C7010E9481016BE971E0C5
:10076000C8010E9481010F900F900F900F900F9081
:100770000F90811106C080913F03823021F085E007
:1007800003C081E001C082E064960FB6F894DEBF3A
:100790000FBECDBFDF91CF911F910F91FF90EF90D2
:1007A0000895809120029091210220911E023091A3
:1007B0001F02821B930B089520911E0230911F028D
:1007C00080912002909121022817390784F48091AA
:1007D0001E0290911F029C012F5F3F4F30931F021A
:1007E00020931E02FC01E156FD4F808108950E9476
:1007F000580180E008950F931F93CF93DF932FEF5D
:1008000030E742E0215030404040E1F700C00000B6
:10081000C82FD92F00E010E005C00F5F1F4F0E94C6
:10082000DC0389930E94D10318161906B4F3C8019A
:10083000DF91CF911F910F9108951F920F920FB6E4
:100840000F9211242F938F939F93EF93FF932FB7C2
:10085000F894E0912002F09121028CB1E156FD4F15
:100860008083809120029091210201969093210231
:10087000809320028091200290912102803A91057C
:1008800041F4109221021092200210921F02109245
:100890001E022FBFFF91EF919F918F912F910F908B
:1008A0000FBE0F901F9018951F920F920FB60F92C8
:1008B00011242F933F938F939F93EF93FF93209156
:1008C0001402309115028091180290911902281794
:1008D00039073CF480911402909115028D379105EF
:1008E00021F410921502109214028091140290913A
:1008F00015029C012F5F3F4F309315022093140285
:10090000FC01EE5DFD4F808188BB8091600090917D
:1009100061009DBD8CBDFF91EF919F918F913F91A3
:100920002F910F900FBE0F901F901895809160002F
:10093000909161009DBD8CBD1FBC85E08EBD84E0A3
:1009400089BF0895CF93DF93CDB7DEB7C659D109DC
:100950000FB6F894DEBF0FBECDBF8FEF87BB9EEF03
:1009600098BBE2E2F2E08083118282E090E0909313
:10097000190280931802109215021092140260E07E
:1009800072EC81E090E00E948C050E9496047894BD
:1009900087EA91E00E94B4050E9436028823E1F3C1
:1009A00083E00E944C0280E00E94010280E00E94ED
:1009B000CC010E94E402833031F46CEB71E087ECEF
:1009C00091E00E94810240ED51E066ED71E080E02F
:1009D0000E9414038FEF88BBD12CF12C0F2EF6E967
:1009E000EF2EF02D8E010F5F1F4FBB24B3940F2EFF
:1009F000F8EFCF2EF02D0E94E402833039F46CEB37
:100A000071E087EC91E00E94810209C0823039F4E4
:100A100040ED51E066ED71E080E00E941403D110DA
:100A200023C0AA24A394AF0C25E02F15E0F4F8010D
:100A30002E2D11922A95E9F78FE0E5EEF1E0D8012D
:100A400001900D928A95E1F7C8010E947F033FEF64
:100A500044E38CE0315040408040E1F700C00000AA
:100A6000FA2CDB2C01C0FA2CF8012E2D11922A95BC
:100A7000E9F7C8010E94FB03181619060CF042C0E2
:100A8000C8BA3FEF49E6E8E131504040E040E1F7C5
:100A900000C00000F801E80FF91F1082C8010E9491
:100AA0007F038981823091F08330C9F0813051F524
:100AB00084EF91E00E94B405C8010E9498018A81E8
:100AC00090E090936100809360001CC08EEF91E0F5
:100AD0000E94B405109215021092140213C088E00F
:100AE00092E00E94B4052A8130E01216130634F415
:100AF00080E090E0019682179307E1F730931702A8
:100B000020931602FFEF25EA3EE0F15020403040EE
:100B1000E1F700C000006FCF599A2AB128692AB9BD
:100B200020B5266820BD0E94D80620E030E040E0D5
:100B300051E40E9466079B01AC0160E074E284EF1F
:100B40009AE40E94300620E030E040E85FE30E9433
:100B5000C3050E94D3070E94A20669B970BD08951B
:100B60008CB95D9BFECF0895CF93DF93EC01888114
:100B7000882331F021960E94B00589918111FBCF25
:100B8000DF91CF9108955058BB27AA270E94DB051B
:100B90000C942C070E941E0738F00E94250720F0B5
:100BA00039F49F3F19F426F40C941B070EF4E095DA
:100BB000E7FB0C941507E92F0E943D0758F3BA177D
:100BC000620773078407950720F079F4A6F50C9463
:100BD0005F070EF4E0950B2EBA2FA02D0B01B90183
:100BE00090010C01CA01A0011124FF27591B99F0A3
:100BF000593F50F4503E68F11A16F040A22F232FAF
:100C0000342F4427585FF3CF469537952795A795FE
:100C1000F0405395C9F77EF41F16BA0B620B730BA5
:100C2000840BBAF09150A1F0FF0FBB1F661F771F16
:100C3000881FC2F70EC0BA0F621F731F841F48F4CB
:100C4000879577956795B795F7959E3F08F0B0CF54
:100C50009395880F08F09927EE0F9795879508953B
:100C60000E9444060C942C070E94250758F00E940D
:100C70001E0740F029F45F3F29F00C94150751112D
:100C80000C9460070C941B070E943D0768F399239E
:100C9000B1F3552391F3951B550BBB27AA27621778
:100CA0007307840738F09F5F5F4F220F331F441F85
:100CB000AA1FA9F335D00E2E3AF0E0E832D09150B9
:100CC0005040E695001CCAF72BD0FE2F29D0660FA6
:100CD000771F881FBB1F261737074807AB07B0E8E9
:100CE00009F0BB0B802DBF01FF2793585F4F3AF0EF
:100CF0009E3F510578F00C9415070C9460075F3FF8
:100D0000E4F3983ED4F3869577956795B795F79574
:100D10009F5FC9F7880F911D9695879597F908955C
:100D2000E1E0660F771F881FBB1F621773078407F8
:100D3000BA0720F0621B730B840BBA0BEE1F88F707
:100D4000E09508950E94A9066894B1110C9460077B
:100D500008950E94450788F09F5798F0B92F99276A
:100D6000B751B0F0E1F0660F771F881F991F1AF096
:100D7000BA95C9F714C0B13091F00E945F07B1E095
:100D800008950C945F07672F782F8827B85F39F094
:100D9000B93FCCF3869577956795B395D9F73EF42F
:100DA00090958095709561957F4F8F4F9F4F0895D7
:100DB000E89409C097FB3EF49095809570956195F5
:100DC0007F4F8F4F9F4F9923A9F0F92F96E9BB27AB
:100DD0009395F695879577956795B795F111F8CF27
:100DE000FAF4BB0F11F460FF1BC06F5F7F4F8F4F92
:100DF0009F4F16C0882311F096E911C0772321F088
:100E00009EE8872F762F05C0662371F096E8862F1F
:100E100070E060E02AF09A95660F771F881FDAF776
:100E2000880F9695879597F9089597F99F6780E8B9
:100E300070E060E008959FEF80EC089500240A942C
:100E40001616170618060906089500240A941216A5
:100E50001306140605060895092E0394000C11F4D8
:100E6000882352F0BB0F40F4BF2B11F460FF04C085
:100E70006F5F7F4F8F4F9F4F089557FD9058440FDE
:100E8000551F59F05F3F71F04795880F97FB991FE9
:100E900061F09F3F79F087950895121613061406A6
:100EA000551FF2CF4695F1DF08C016161706180633
:100EB000991FF1CF86957105610508940895E8940E
:100EC000BB2766277727CB0197F908950E947907FA
:100ED0000C942C070E941E0738F00E94250720F072
:100EE000952311F00C9415070C941B0711240C94F6
:100EF00060070E943D0770F3959FC1F3950F50E086
:100F0000551F629FF001729FBB27F00DB11D639FBB
:100F1000AA27F00DB11DAA1F649F6627B00DA11D61
:100F2000661F829F2227B00DA11D621F739FB00D07
:100F3000A11D621F839FA00D611D221F749F332777
:100F4000A00D611D231F849F600D211D822F762F10
:100F50006A2F11249F5750409AF0F1F088234AF0ED
:100F6000EE0FFF1FBB1F661F771F881F9150504059
:100F7000A9F79E3F510580F00C9415070C9460076B
:100F80005F3FE4F3983ED4F3869577956795B795E0
:100F9000F795E7959F5FC1F7FE2B880F911D9695FA
:100FA000879597F908950E944507E8F09E37E8F085
:100FB0009639B8F49E3848F4672F782F8827985FC1
:100FC000F9CF86957795679593959539D0F3B62F98
:100FD000B1706B0F711D811D20F487957795679512
:100FE00093950C94F7070C9412080C9460078823CF
:100FF00071F4772321F09850872B762F07C0662352
:1010000011F499270DC09051862B70E060E02AF012
:101010009A95660F771F881FDAF7880F9695879540
:1010200097F908959F3F31F0915020F48795779577
:101030006795B795880F911D9695879597F90895AF
:10104000FB01DC0102C001900D9241505040D8F7E5
:1010500008956817790768F4FB01DC01E40FF51FB8
:10106000A40FB51F02C002900E9241505040D8F715
:1010700008950C942008FB01DC014150504030F0F1
:101080008D910190801919F40020B9F7881B990BF4
:101090000895FB0151915523A9F0BF01DC014D9149
:1010A00045174111E1F759F4CD010190002049F0B5
:1010B0004D9140154111C9F3FB014111EFCF81E082
:1010C00090E001970895AEE0B0E0E9E6F8E00C9416
:1010D000240B0D891E8986E08C831A8309838FEF88
:1010E0009FE79E838D83AE01475E5F4F6F89788D4A
:1010F000CE0101960E948508EF81F885E00FF11F6F
:1011000010822E96E4E00C94400BABE0B0E0EBE8EC
:10111000F8E00C94160B6C017B018A01FC0117822C
:101120001682838181FFCCC1CE0101963C01F6017C
:101130009381F70193FD859193FF81917F0188232E
:1011400009F4BAC1853239F493FD859193FF8191F9
:101150007F01853229F4B60190E00E947C0AE7CF36
:10116000912C212C312CFFE1F315D8F08B3279F042
:1011700038F4803279F08332A1F4232D20611DC030
:101180008D3261F0803369F4232D216016C0832DE8
:101190008260382EE32DE4603E2E2AC0F32DF860E5
:1011A0001DC037FC2DC020ED280F2A3040F08E32B4
:1011B000B9F436FC81C1232D2064322E19C036FECD
:1011C00006C08AE0989E200D1124922E11C0EAE0FC
:1011D0002E9E200D1124222EF32DF0623F2E08C0EA
:1011E0008C3621F4832D8068382E02C0883641F475
:1011F000F70193FD859193FF81917F018111B3CF19
:10120000982F9F7D9554933028F40C5F1F4F9FE3D8
:1012100099830DC0833631F0833771F0833509F03F
:1012200059C021C0F801808189830E5F1F4F882437
:101230008394912C530113C02801F2E04F0E511CEE
:10124000F801A080B18036FE03C0692D70E002C0B5
:101250006FEF7FEFC5010E94710A4C018201F32DEF
:10126000FF773F2E16C0280122E0420E511CF801E4
:10127000A080B18036FE03C0692D70E002C06FEF20
:101280007FEFC5010E94660A4C01F32DF0683F2EE6
:10129000820133FC1BC0822D90E088169906B0F4C1
:1012A000B60180E290E00E947C0A2A94F4CFF50116
:1012B00037FC859137FE81915F01B60190E00E9475
:1012C0007C0A21102A9421E0821A91088114910449
:1012D00071F7E8C0843611F0893641F5F80137FE20
:1012E00007C060817181828193810C5F1F4F08C0AC
:1012F00060817181072E000C880B990B0E5F1F4FC8
:10130000F32DFF763F2E97FF09C09095809570953D
:1013100061957F4F8F4F9F4FF0683F2E2AE030E05E
:10132000A3010E94B80A882E861845C0853731F47B
:10133000232D2F7EB22E2AE030E025C0932D997FF9
:10134000B92E8F36C1F018F4883579F0B5C08037E2
:1013500019F0883721F0B0C0E92FE061BE2EB4FE4D
:101360000DC0FB2DF460BF2E09C034FE0AC0292F2A
:101370002660B22E06C028E030E005C020E130E053
:1013800002C020E132E0F801B7FE07C06081718140
:10139000828193810C5F1F4F06C06081718180E064
:1013A00090E00E5F1F4FA3010E94B80A882E861896
:1013B000FB2DFF773F2E36FE0DC0232D2E7FA22E54
:1013C000891458F434FE0BC032FC09C0832D8E7E84
:1013D000A82E05C0B82CA32C03C0B82C01C0B92C72
:1013E000A4FE0FC0FE01E80DF11D8081803321F4C1
:1013F0009A2D997EA92E09C0A2FE06C0B394B3947B
:1014000004C08A2D867809F0B394A3FC11C0A0FE15
:1014100006C0B21488F4280C922C9B180EC0B2148B
:1014200060F4B60180E290E00E947C0AB394F7CFAA
:10143000B21418F42B1802C0982C212CA4FE10C052
:10144000B60180E390E00E947C0AA2FE17C0A1FCD6
:1014500003C088E790E002C088E590E0B6010CC0C8
:101460008A2D867859F0A1FE02C08BE201C080E28D
:10147000A7FC8DE2B60190E00E947C0A891438F442
:10148000B60180E390E00E947C0A9A94F7CF8A9498
:10149000F301E80DF11D8081B60190E00E947C0A05
:1014A0008110F5CF222009F442CEB60180E290E00F
:1014B0000E947C0A2A94F6CFF6018681978102C0A9
:1014C0008FEF9FEF2B96E2E10C94320BFC0105901D
:1014D000615070400110D8F7809590958E0F9F1F36
:1014E0000895FC016150704001900110D8F780957B
:1014F00090958E0F9F1F08950F931F93CF93DF93A7
:10150000FB01238121FD03C08FEF9FEF2CC022FF41
:1015100016C046815781248135814217530744F410
:10152000A081B1819D012F5F3F4F318320838C9338
:10153000268137812F5F3F4F3783268314C08B016D
:10154000EC01FB010084F185E02D0995892BE1F682
:10155000D80116968D919C911797019617969C939A
:101560008E931697CE01DF91CF911F910F91089521
:10157000FA01AA27283051F1203181F1E8946F93C4
:101580006E7F6E5F7F4F8F4F9F4FAF4FB1E03ED06A
:10159000B4E03CD0670F781F891F9A1FA11D680F08
:1015A000791F8A1F911DA11D6A0F711D811D911D3B
:1015B000A11D20D009F468943F912AE0269F1124B0
:1015C0003019305D3193DEF6CF010895462F477014
:1015D000405D4193B3E00FD0C9F7F6CF462F4F706F
:1015E000405D4A3318F0495D31FD4052419302D0CD
:1015F000A9F7EACFB4E0A695979587957795679573
:10160000BA95C9F700976105710508959B01AC0172
:101610000A2E06945795479537952795BA95C9F799
:10162000620F731F841F951FA01D08952F923F9274
:101630004F925F926F927F928F929F92AF92BF92E2
:10164000CF92DF92EF92FF920F931F93CF93DF938E
:10165000CDB7DEB7CA1BDB0B0FB6F894DEBF0FBEEB
:10166000CDBF09942A88398848885F846E847D8438
:101670008C849B84AA84B984C884DF80EE80FD803A
:101680000C811B81AA81B981CE0FD11D0FB6F894B0
:0E169000DEBF0FBECDBFED010895F894FFCF71
:10169E0088130D0A4F4B0D0A007768617449676F06
:1016AE00743D25730041542B4349504D4F44453DE5
:1016BE0025640041542B4349504D55583D25640037
:1016CE00415445300041540041542B434950434C42
:1016DE004F53453D310041542B43574D4F44453DEB
:1016EE0025640041542B43574A41503D2225732215
:1016FE002C22257322000D0A5749464920434F4E8E
:10170E004E45435445440D0A002B43574A41503A27
:10171E0031002B43574A41503A32002B43574A412E
:10172E00503A33002B43574A41503A340041542B20
:10173E0043495053544154555300535441545553F7
:10174E003A32005354415455533A33005354415492
:10175E0055533A34005354415455533A3500434986
:10176E00504D55583A300041542B4349504D555821
:10177E003F0041542B43495053544152543D22543F
:10178E004350222C222573222C25730041542B43C7
:10179E00495053544152543D222564222C22544325
:1017AE0050222C222573222C257300434F4E4E457A
:1017BE0043540D0A0041542B43495053454E443D6A
:1017CE002564000D0A4F4B0D0A3E000D0A53454E7F
:1017DE0044204F4B0D0A004845492056454C4B4F6F
:1017EE004D4D454E2056455244454E00666C657330
:1017FE006B6565736B6500587065726961207A0060
:10180E003130303030003139322E3136382E3433DB
:10181E002E323534004B4C415220464F5220544507
:10182E004D504F000D0A54454D504F0D0A000D0AF4
:10183E0052455345540D0A000D0A50524F4752411E
:04184E004D0D0A0032
:00000001FF
