S015000041546D65676131365F574946492E73726563EB
S11300000C942A000C9447000C9447000C9447006D
S11300100C9447000C9447000C9447000C94470040
S11300200C9420040C9447000C9447000C94E903AE
S11300300C9447000C9447000C9447000C94470020
S11300400C9447000C9447000C9447000C94470010
S11300500C94470011241FBECFE5D4E0DEBFCDBF12
S113006012E0A0E6B0E0E2E2F6E102C005900D92F3
S1130070A630B107D9F723E0A6E0B2E001C01D9293
S1130080A233B207E1F70E946E040C940F0B0C9498
S113009000002F923F924F925F926F927F928F92C5
S11300A09F92AF92BF92CF92DF92EF92FF920F9303
S11300B01F93CF93DF93CDB7DEB72C970FB6F89489
S11300C0DEBF0FBECDBF9E838D832DB73EB73C8769
S11300D02B87FC0101900020E9F731975F01A81AF2
S11300E0B90ABB24A5014150510958874F838DB7E4
S11300F09EB78A199B090FB6F8949EBF0FBE8DBF99
S1130100ADB7BEB711964D0180910C0290910D02CE
S1130110A0910E02B0910F02803F984DAF4FBF4F98
S113012061F410920C0210920D0210920E021092C1
S11301300F0282E0809331039BC019821A821B82D2
S11301401C822F803884280C391C94012F5F3F4F68
S11301503A87298780913103843011F41092310356
S1130160E1E9F2E001900020E9F73197CF018159EC
S113017092406C01E12CF12CC114D104E104F1048E
S113018009F451C08FEC97E00197F1F700C000002B
S113019029813A814B815C812F5F3F4F4F4F5F4FE5
S11301A029833A834B835C83E1E9F2E001900020E8
S11301B0E9F73197CF0181599240A0E0B0E0C81629
S11301C0D906EA06FB0679F501E912E0412C512C27
S11301D032014F81588569857A85C4010E94EB07F5
S11301E0D8018D918D01F1018083A5016D817E81FE
S11301F0C4010E94FD07892B61F410920C02109235
S11302000D0210920E0210920F0281E080933103CE
S11302102FC0FFEF4F1A5F0A6F0A7F0A4C145D0468
S11302206E047F04B1F68FEC97E00197F1F700C0FC
S1130230000029813A814B815C812F5F3F4F4F4FF2
S11302405F4F29833A834B835C8380910C029091A6
S11302500D02A0910E02B0910F02805F984DAF4F36
S1130260BF4F281739074A075B0708F473CF59CFE4
S11302704B855C850FB6F8945EBF0FBE4DBF2C96C0
S11302800FB6F894DEBF0FBECDBFDF91CF911F91A3
S11302900F91FF90EF90DF90CF90BF90AF909F9021
S11302A08F907F906F905F904F903F902F90089524
S11302B080EAE1E9F2E0DF011D928A95E9F7109204
S11302C01302109212021092110210921002089559
S11302D0CF93DF93EC0184E080933103CE010E943D
S11302E04900809131038823C9F3DF91CF910895A8
S11302F00E94680181E090913103923009F480E01A
S113030008950F931F93CF93DF938C01EB010E9409
S11303105801C8010E9476058AEC90E00E94760597
S1130320CE010E947801DF91CF911F910F91089522
S11303300F931F93CF93DF93CDB7DEB764970FB6B8
S1130340F894DEBF0FBECDBF8E010F5F1F4F94E147
S1130350F80111929A95E9F71F928F9389E690E03C
S11303609F938F931F930F930E9425081C8A62E624
S113037070E0C8010E9481010F900F900F900F90C0
S11303800F900F9064960FB6F894DEBF0FBECDBFEA
S1130390DF91CF911F910F9108950F931F93CF93E6
S11303A0DF93CDB7DEB764970FB6F894DEBF0FBE08
S11303B0CDBF8E010F5F1F4F94E1F80111929A9502
S11303C0E9F71F928F9387E790E09F938F931F9392
S11303D00F930E9425081C8A62E670E0C8010E94FF
S11303E081010F900F900F900F900F900F906496D3
S11303F00FB6F894DEBF0FBECDBFDF91CF911F9132
S11304000F910895CF93C5E062E670E084E890E030
S11304100E94810181110AC062E670E089E890E0DF
S11304200E948101811102C0C15071F7CF910895DA
S11304300F931F93CF93DF93CDB7DEB764970FB6B7
S1130440F894DEBF0FBECDBF8E010F5F1F4F94E146
S1130450F80111929A95E9F71F928F938AE990E037
S11304609F938F931F930F930E9425081C8A62E623
S113047070E0C8010E9481010F900F900F900F90BF
S11304800F900F9064960FB6F894DEBF0FBECDBFE9
S1130490DF91CF911F910F9108950F931F93CF93E5
S11304A0DF93CDB7DEB7EC970FB6F894DEBF0FBE7F
S11304B0CDBF8E010F5F1F4F2CE3F80111922A95D7
S11304C0E9F77F936F939F938F9387EA90E09F93CD
S11304D08F931F930F930E9425081CAE6AEB70E064
S11304E0C8010E9481010FB6F894DEBF0FBECDBFD4
S11304F0811122C06DEC70E081E992E00E940B084A
S1130500892BE1F466ED70E081E992E00E940B082A
S1130510892BB1F46FED70E081E992E00E940B0841
S1130520892B81F468EE70E081E992E00E940B0867
S1130530892B51F485E009C080E007C081E005C043
S113054082E003C083E001C084E0EC960FB6F89427
S1130550DEBF0FBECDBFDF91CF911F910F910895E4
S113056062E670E081EF90E00E9481016EEF70E03E
S113057081E992E00E940B08892BD1F467E071E0D5
S113058081E992E00E940B08892BA1F460E171E0FB
S113059081E992E00E940B08892B71F469E171E012
S11305A081E992E00E940B08892B41F484E00895CC
S11305B080E0089581E0089582E0089583E008953D
S11305C0DF92EF92FF920F931F93CF93DF93CDB7F8
S11305D0DEB7EC970FB6F894DEBF0FBECDBFD82EB2
S11305E0162F072FF42EE52EFE0131968CE3DF0142
S11305F01D928A95E9F762E271E08BE291E00E9434
S113060081018823A1F0EF92FF920F931F9386E359
S113061091E09F938F93CE0101969F938F930E94B5
S113062025080FB6F894DEBF0FBECDBF15C0EF92FC
S1130630FF920F931F931F92DF9280E591E09F93A7
S11306408F93CE0101969F938F930E9425080FB636
S1130650F894DEBF0FBECDBF6FE671E0CE01019608
S11306600E948101811106C080913103823021F002
S113067085E003C081E001C082E0EC960FB6F894F7
S1130680DEBF0FBECDBFDF91CF911F910F91FF90C1
S1130690EF90DF900895EF92FF920F931F93CF9303
S11306A0DF93CDB7DEB764970FB6F894DEBF0FBE05
S11306B0CDBF8C01CE0101967C0184E1F70111923A
S11306C08A95E9F7F80101900020E9F7CF01801B32
S11306D0910B01969F938F9389E791E09F938F935A
S11306E0FF92EF920E9425081C8A67E871E0C70117
S11306F00E9481016FE871E0C8010E9481010F909E
S11307000F900F900F900F900F90811106C0809161
S11307103103823021F085E003C081E001C082E032
S113072064960FB6F894DEBF0FBECDBFDF91CF91B4
S11307301F910F91FF90EF90089580911202909174
S113074013022091100230911102821B930B089521
S113075020911002309111028091120290911302A3
S11307602817390784F480911002909111029C019A
S11307702F5F3F4F3093110220931002FC01EF567C
S1130780FD4F808108950E94580180E008950F93E1
S11307901F93CF93DF932FEF30E742E02150304097
S11307A04040E1F700C00000C82FD92F00E010E05E
S11307B005C00F5F1F4F0E94A80389930E949D03E9
S11307C018161906B4F3C801DF91CF911F910F9148
S11307D008951F920F920FB60F9211242F938F93A7
S11307E09F93EF93FF932FB7F894E0911202F09147
S11307F013028CB1EF56FD4F8083809112029091C9
S113080013020196909313028093120280911202B4
S113081090911302803A910541F4109213021092C0
S1130820120210921102109210022FBFFF91EF9149
S11308309F918F912F910F900FBE0F901F9018953D
S11308401F920F920FB60F9211242F933F938F9301
S11308509F93EF93FF9320910602309107028091BA
S11308600A0290910B02281739073CF48091060282
S1130870909107028D37910521F41092070210928E
S1130880060280910602909107029C012F5F3F4F60
S11308903093070220930602FC01EC5EFD4F808139
S11308A088BB80916000909161009DBD8CBDFF91DB
S11308B0EF919F918F913F912F910F900FBE0F90C9
S11308C01F90189580916000909161009DBD8CBD32
S11308D01FBC85E08EBD84E089BF0895CF93DF936C
S11308E0CDB7DEB7C659D1090FB6F894DEBF0FBE37
S11308F0CDBF8FEF87BB18BAE4E1F2E080831182A9
S113090082E090E090930B0280930A021092070217
S11309101092060260E072EC81E090E00E944E05C5
S11309200E94620478948BE991E00E9476050E940B
S113093002028823E1F383E00E94180280E00E940F
S1130940CD0180E00E9498010E94B002833031F40E
S113095060EB71E08BEB91E00E944D0244EC51E0BE
S11309606AEC71E080E00E94E002E12CF12C8E013F
S11309700F5F1F4F0F2EF6E9BF2EF02DCC24C3942A
S11309800E94B002833039F460EB71E08BEB91E0AC
S11309900E944D0209C0823039F444EC51E06AEC03
S11309A071E080E00E94E002E11068C0DD24D3948D
S11309B0DF0C25E02F1588F4F8012B2D11922A95D0
S11309C0E9F78FE0E9EDF1E0D80101900D928A9505
S11309D0E1F7C8010E944B03EC2C8FEF91E1EAE7A9
S11309E081509040E040E1F700C00000C8010E943F
S11309F0C703181619069CF5C8010E947605FD2C3C
S1130A008981823079F08330B1F0813049F588EE04
S1130A1091E00E9476058A8190E090936100809332
S1130A2060001EC081EF91E00E94760510920702DB
S1130A301092060215C08AEF91E00E9476052A8181
S1130A4030E01216130634F480E090E00196821729
S1130A509307E1F7309309022093080201C0FD2CAB
S1130A60FFEF25EA8EE0F15020408040E1F700C01E
S1130A70000086CFC8010E947605C2CF9FEFE1E156
S1130A80FAE79150E040F040E1F700C00000C801EF
S1130A900E94C703181619066CF3E2CF599A2AB1BB
S1130AA028692AB920B5266820BD0E949A0620E04C
S1130AB030E040E051E40E9428079B01AC0160E073
S1130AC074E284EF9AE40E94F20520E030E040E80A
S1130AD05FE30E9485050E9495070E94640669B938
S1130AE070BD08958CB95D9BFECF0895CF93DF93BD
S1130AF0EC018881882331F021960E947205899146
S1130B008111FBCFDF91CF9108955058BB27AA27BD
S1130B100E949D050C94EE060E94E00638F00E94A7
S1130B20E70620F039F49F3F19F426F40C94DD060F
S1130B300EF4E095E7FB0C94D706E92F0E94FF061C
S1130B4058F3BA17620773078407950720F079F4FE
S1130B50A6F50C9421070EF4E0950B2EBA2FA02DC8
S1130B600B01B90190010C01CA01A0011124FF2756
S1130B70591B99F0593F50F4503E68F11A16F04051
S1130B80A22F232F342F4427585FF3CF4695379550
S1130B902795A795F0405395C9F77EF41F16BA0B15
S1130BA0620B730B840BBAF09150A1F0FF0FBB1FC3
S1130BB0661F771F881FC2F70EC0BA0F621F731F0C
S1130BC0841F48F4879577956795B795F7959E3F69
S1130BD008F0B0CF9395880F08F09927EE0F9795FA
S1130BE0879508950E9406060C94EE060E94E70677
S1130BF058F00E94E00640F029F45F3F29F00C947D
S1130C00D70651110C9422070C94DD060E94FF06AE
S1130C1068F39923B1F3552391F3951B550BBB2727
S1130C20AA2762177307840738F09F5F5F4F220F6C
S1130C30331F441FAA1FA9F335D00E2E3AF0E0E863
S1130C4032D091505040E695001CCAF72BD0FE2FAD
S1130C5029D0660F771F881FBB1F26173707480741
S1130C60AB07B0E809F0BB0B802DBF01FF279358F9
S1130C705F4F3AF09E3F510578F00C94D7060C94E0
S1130C8022075F3FE4F3983ED4F386957795679502
S1130C90B795F7959F5FC9F7880F911D969587952E
S1130CA097F90895E1E0660F771F881FBB1F62174D
S1130CB073078407BA0720F0621B730B840BBA0B0B
S1130CC0EE1F88F7E09508950E946B066894B111B1
S1130CD00C94220708950E94070788F09F5798F004
S1130CE0B92F9927B751B0F0E1F0660F771F881F2D
S1130CF0991F1AF0BA95C9F714C0B13091F00E9447
S1130D002107B1E008950C942107672F782F8827D5
S1130D10B85F39F0B93FCCF3869577956795B3956D
S1130D20D9F73EF490958095709561957F4F8F4FDC
S1130D309F4F0895E89409C097FB3EF490958095E1
S1130D40709561957F4F8F4F9F4F9923A9F0F92F8D
S1130D5096E9BB279395F695879577956795B7950B
S1130D60F111F8CFFAF4BB0F11F460FF1BC06F5FF1
S1130D707F4F8F4F9F4F16C0882311F096E911C003
S1130D80772321F09EE8872F762F05C0662371F024
S1130D9096E8862F70E060E02AF09A95660F771F38
S1130DA0881FDAF7880F9695879597F9089597F92C
S1130DB09F6780E870E060E008959FEF80EC0895FD
S1130DC000240A9416161706180609060895002426
S1130DD00A9412161306140605060895092E0394A0
S1130DE0000C11F4882352F0BB0F40F4BF2B11F414
S1130DF060FF04C06F5F7F4F8F4F9F4F089557FD73
S1130E009058440F551F59F05F3F71F04795880F74
S1130E1097FB991F61F09F3F79F08795089512160B
S1130E2013061406551FF2CF4695F1DF08C01616B7
S1130E3017061806991FF1CF869571056105089468
S1130E400895E894BB2766277727CB0197F908957F
S1130E500E943B070C94EE060E94E00638F00E94C4
S1130E60E70620F0952311F00C94D7060C94DD06C8
S1130E7011240C9422070E94FF0670F3959FC1F37E
S1130E80950F50E0551F629FF001729FBB27F00D34
S1130E90B11D639FAA27F00DB11DAA1F649F662789
S1130EA0B00DA11D661F829F2227B00DA11D621FD8
S1130EB0739FB00DA11D621F839FA00D611D221F92
S1130EC0749F3327A00D611D231F849F600D211D76
S1130ED0822F762F6A2F11249F5750409AF0F1F0F9
S1130EE088234AF0EE0FFF1FBB1F661F771F881F62
S1130EF091505040A9F79E3F510580F00C94D706BD
S1130F000C9422075F3FE4F3983ED4F386957795DB
S1130F106795B795F795E7959F5FC1F7FE2B880F07
S1130F20911D9695879597F908950E940707E8F013
S1130F309E37E8F09639B8F49E3848F4672F782F36
S1130F408827985FF9CF8695779567959395953916
S1130F50D0F3B62FB1706B0F711D811D20F48795EE
S1130F607795679593950C94B9070C94D4070C94D2
S1130F702207882371F4772321F09850872B762F4A
S1130F8007C0662311F499270DC09051862B70E099
S1130F9060E02AF09A95660F771F881FDAF7880FAA
S1130FA09695879597F908959F3F31F0915020F4D5
S1130FB0879577956795B795880F911D9695879531
S1130FC097F90895FB01DC0102C001900D92415094
S1130FD05040D8F708956817790768F4FB01DC01DD
S1130FE0E40FF51FA40FB51F02C002900E924150EA
S1130FF05040D8F708950C94E207FB01DC014150FE
S1131000504030F08D910190801919F40020B9F707
S1131010881B990B0895FB0151915523A9F0BF0139
S1131020DC014D9145174111E1F759F4CD010190CF
S1131030002049F04D9140154111C9F3FB014111C4
S1131040EFCF81E090E001970895AEE0B0E0EBE2ED
S1131050F8E00C94E60A0D891E8986E08C831A83D5
S113106009838FEF9FE79E838D83AE01475E5F4FB9
S11310706F89788DCE0101960E944708EF81F8852B
S1131080E00FF11F10822E96E4E00C94020BABE00B
S1131090B0E0EDE4F8E00C94D80A6C017B018A011D
S11310A0FC0117821682838181FFCCC1CE01019697
S11310B03C01F6019381F70193FD859193FF8191A2
S11310C07F01882309F4BAC1853239F493FD8591EF
S11310D093FF81917F01853229F4B60190E00E944B
S11310E03E0AE7CF912C212C312CFFE1F315D8F0E7
S11310F08B3279F038F4803279F08332A1F4232DE5
S113110020611DC08D3261F0803369F4232D21608C
S113111016C0832D8260382EE32DE4603E2E2AC053
S1131120F32DF8601DC037FC2DC020ED280F2A30A8
S113113040F08E32B9F436FC81C1232D2064322E66
S113114019C036FE06C08AE0989E200D1124922E06
S113115011C0EAE02E9E200D1124222EF32DF06200
S11311603F2E08C08C3621F4832D8068382E02C0AF
S1131170883641F4F70193FD859193FF81917F01B6
S11311808111B3CF982F9F7D9554933028F40C5F31
S11311901F4F9FE399830DC0833631F0833771F07D
S11311A0833509F059C021C0F801808189830E5F1D
S11311B01F4F88248394912C530113C02801F2E01B
S11311C04F0E511CF801A080B18036FE03C0692D7A
S11311D070E002C06FEF7FEFC5010E94330A4C013B
S11311E08201F32DFF773F2E16C0280122E0420E24
S11311F0511CF801A080B18036FE03C0692D70E057
S113120002C06FEF7FEFC5010E94280A4C01F32D45
S1131210F0683F2E820133FC1BC0822D90E08816BB
S11312209906B0F4B60180E290E00E943E0A2A9446
S1131230F4CFF50137FC859137FE81915F01B6014A
S113124090E00E943E0A21102A9421E0821A91081B
S11312508114910471F7E8C0843611F0893641F5A0
S1131260F80137FE07C060817181828193810C5F30
S11312701F4F08C060817181072E000C880B990BE9
S11312800E5F1F4FF32DFF763F2E97FF09C09095F9
S11312908095709561957F4F8F4F9F4FF0683F2EDB
S11312A02AE030E0A3010E947A0A882E861845C0FD
S11312B0853731F4232D2F7EB22E2AE030E025C06D
S11312C0932D997FB92E8F36C1F018F4883579F0B3
S11312D0B5C0803719F0883721F0B0C0E92FE0613C
S11312E0BE2EB4FE0DC0FB2DF460BF2E09C034FE2B
S11312F00AC0292F2660B22E06C028E030E005C0BF
S113130020E130E002C020E132E0F801B7FE07C07E
S113131060817181828193810C5F1F4F06C060815F
S1131320718180E090E00E5F1F4FA3010E947A0A52
S1131330882E8618FB2DFF773F2E36FE0DC0232DF9
S11313402E7FA22E891458F434FE0BC032FC09C03F
S1131350832D8E7EA82E05C0B82CA32C03C0B82CD8
S113136001C0B92CA4FE0FC0FE01E80DF11D80815F
S1131370803321F49A2D997EA92E09C0A2FE06C0BD
S1131380B394B39404C08A2D867809F0B394A3FC73
S113139011C0A0FE06C0B21488F4280C922C9B182D
S11313A00EC0B21460F4B60180E290E00E943E0ADE
S11313B0B394F7CFB21418F42B1802C0982C212C34
S11313C0A4FE10C0B60180E390E00E943E0AA2FE93
S11313D017C0A1FC03C088E790E002C088E590E054
S11313E0B6010CC08A2D867859F0A1FE02C08BE2AA
S11313F001C080E2A7FC8DE2B60190E00E943E0AA3
S1131400891438F4B60180E390E00E943E0A9A946D
S1131410F7CF8A94F301E80DF11D8081B60190E0C5
S11314200E943E0A8110F5CF222009F442CEB60173
S113143080E290E00E943E0A2A94F6CFF60186816B
S1131440978102C08FEF9FEF2B96E2E10C94F40A90
S1131450FC010590615070400110D8F7809590957B
S11314608E0F9F1F0895FC01615070400190011080
S1131470D8F7809590958E0F9F1F08950F931F9313
S1131480CF93DF93FB01238121FD03C08FEF9FEFF7
S11314902CC022FF16C04681578124813581421712
S11314A0530744F4A081B1819D012F5F3F4F3183E5
S11314B020838C93268137812F5F3F4F3783268388
S11314C014C08B01EC01FB010084F185E02D09952A
S11314D0892BE1F6D80116968D919C911797019668
S11314E017969C938E931697CE01DF91CF911F91FF
S11314F00F910895FA01AA27283051F1203181F182
S1131500E8946F936E7F6E5F7F4F8F4F9F4FAF4F07
S1131510B1E03ED0B4E03CD0670F781F891F9A1F1A
S1131520A11D680F791F8A1F911DA11D6A0F711DCE
S1131530811D911DA11D20D009F468943F912AE0DA
S1131540269F11243019305D3193DEF6CF010895C2
S1131550462F4770405D4193B3E00FD0C9F7F6CFF3
S1131560462F4F70405D4A3318F0495D31FD4052BB
S1131570419302D0A9F7EACFB4E0A6959795879551
S113158077956795BA95C9F7009761057105089530
S11315909B01AC010A2E06945795479537952795DC
S11315A0BA95C9F7620F731F841F951FA01D089574
S11315B02F923F924F925F926F927F928F929F925F
S11315C0AF92BF92CF92DF92EF92FF920F931F934D
S11315D0CF93DF93CDB7DEB7CA1BDB0B0FB6F894FE
S11315E0DEBF0FBECDBF09942A88398848885F843E
S11315F06E847D848C849B84AA84B984C884DF80AF
S1131600EE80FD800C811B81AA81B981CE0FD11D92
S11316100FB6F894DEBF0FBECDBFED010895F89468
S1051620FFCFF6
S113162288130D0A4F4B0D0A0041542B4349504D68
S11316324F44453D25640041542B4349504D555870
S11316423D256400415445300041540041542B432C
S11316524950434C4F53453D310041542B43574D60
S11316624F44453D25640041542B43574A41503D64
S1131672222573222C22257322000D0A574946493A
S113168220434F4E4E45435445440D0A002B4357C5
S11316924A41503A31002B43574A41503A32002BC7
S11316A243574A41503A33002B43574A41503A3444
S11316B20041542B434950535441545553005354FD
S11316C2415455533A32005354415455533A33001A
S11316D25354415455533A34005354415455533A94
S11316E235004349504D55583A300041542B434933
S11316F2504D55583F0041542B4349505354415285
S1131702543D22544350222C222573222C2573004B
S113171241542B43495053544152543D222564228F
S11317222C22544350222C222573222C257300434D
S11317324F4E4E4543540D0A0041542B43495053D6
S1131742454E443D2564000D0A4F4B0D0A3E000DE3
S11317520A53454E44204F4B0D0A00484549205632
S1131762454C4B4F4D4D454E2056455244454E0037
S1131772666C65736B6565736B6500587065726939
S113178261207A003130303030003139322E313636
S1131792382E34332E323534004B4C415220464FCE
S11317A2522054454D504F000D54454D504F0D0A93
S11317B2000D52455345540D0A000D50524F4752E5
S10917C2414D0D0A000078
S9030000FC
