S015000041546D65676131365F574946492E73726563EB
S11300000C9430000C944D000C944D000C944D0055
S11300100C944D000C944D000C944D000C944D0028
S11300200C94E6030C944D000C944D000C94AF0317
S11300300C944D000C944D000C944D000C944D0008
S11300400C944D000C944D000C944D000C944D00F8
S11300500C944D006364696E6F70737578585B001F
S113006011241FBECFE5D4E0DEBFCDBF11E0A0E672
S1130070B0E0E2E2FCE102C005900D92AA3EB107B5
S1130080D9F723E0AAEEB1E001C01D92A431B20772
S1130090E1F70E9428040C940F0E0C9400002F9298
S11300A03F924F925F926F927F928F929F92AF9204
S11300B0BF92CF92DF92EF92FF920F931F93CF9351
S11300C0DF93CDB7DEB72C970FB6F894DEBF0FBE23
S11300D0CDBF9E838D832DB73EB73C872B87FC0114
S11300E001900020E9F731975F01A81AB90ABB24EF
S11300F0A5014150510958874F838DB79EB78A197E
S11301009B090FB6F8949EBF0FBE8DBFADB7BEB7A7
S113011011964D018091EE019091EF01A091F001B3
S1130120B091F101803F984DAF4FBF4F61F41092F1
S1130130EE011092EF011092F0011092F10182E0B1
S1130140809313039BC019821A821B821C822F8006
S11301503884280C391C94012F5F3F4F3A87298734
S113016080911303843011F410921303E3E7F2E057
S113017001900020E9F73197CF01835792406C0139
S1130180E12CF12CC114D104E104F10409F451C0AF
S11301908FEC97E00197F1F700C0000029813A81C4
S11301A04B815C812F5F3F4F4F4F5F4F29833A83D1
S11301B04B835C83E3E7F2E001900020E9F7319799
S11301C0CF0183579240A0E0B0E0C816D906EA06F2
S11301D0FB0679F503E712E0412C512C32014F81E3
S11301E0588569857A85C4010E949D07D8018D913F
S11301F08D01F1018083A5016D817E81C4010E947E
S1130200BA07892B61F41092EE011092EF0110925B
S1130210F0011092F10181E0809313032FC0FFEFEE
S11302204F1A5F0A6F0A7F0A4C145D046E047F0440
S1130230B1F68FEC97E00197F1F700C00000298137
S11302403A814B815C812F5F3F4F4F4F5F4F298332
S11302503A834B835C838091EE019091EF01A091EE
S1130260F001B091F101805F984DAF4FBF4F281757
S113027039074A075B0708F473CF59CF4B855C8570
S11302800FB6F8945EBF0FBE4DBF2C960FB6F89410
S1130290DEBF0FBECDBFDF91CF911F910F91FF90B5
S11302A0EF90DF90CF90BF90AF909F908F907F9012
S11302B06F905F904F903F902F90089580EAE3E70E
S11302C0F2E0DF011D928A95E9F71092F501109290
S11302D0F4011092F3011092F2010895CF93DF9389
S11302E0EC0184E080931303CE010E944F008091BF
S11302F013038823C9F3DF91CF9108950E946E01FF
S113030081E090911303923009F480E008950F93F3
S11303101F93CF93DF938C01EB010E945E01C80110
S11303200E94280586ED90E00E942805CE010E94D7
S11303307E01DF91CF911F910F9108950F931F9329
S1130340CF93DF93CDB7DEB764970FB6F894DEBFD3
S11303500FBECDBF8E010F5F1F4F94E1F8011192C4
S11303609A95E9F71F928F9385E790E09F938F9377
S11303701F930F930E94F1071C8A62E670E0C80184
S11303800E9487010F900F900F900F900F900F9085
S113039064960FB6F894DEBF0FBECDBFDF91CF9148
S11303A01F910F9108950F931F93CF93DF93CDB7B0
S11303B0DEB764970FB6F894DEBF0FBECDBF8E01D3
S11303C00F5F1F4F94E1F80111929A95E9F71F927C
S11303D08F9383E890E09F938F931F930F930E94D2
S11303E0F1071C8A62E670E0C8010E9487010F9041
S11303F00F900F900F900F900F9064960FB6F89493
S1130400DEBF0FBECDBFDF91CF911F910F91089535
S1130410CF93C5E062E670E080E990E00E94870136
S113042081110AC062E670E085E990E00E948701CC
S1130430811102C0C15071F7CF9108950F931F939A
S1130440CF93DF93CDB7DEB764970FB6F894DEBFD2
S11304500FBECDBF8E010F5F1F4F94E1F8011192C3
S11304609A95E9F71F928F9386EA90E09F938F9372
S11304701F930F930E94F1071C8A62E670E0C80183
S11304800E9487010F900F900F900F900F900F9084
S113049064960FB6F894DEBF0FBECDBFDF91CF9147
S11304A01F910F9108950F931F93CF93DF93CDB7AF
S11304B0DEB7EC970FB6F894DEBF0FBECDBF8E014A
S11304C00F5F1F4F2CE3F80111922A95E9F77F93F0
S11304D06F939F938F9383EB90E09F938F931F93DE
S11304E00F930E94F1071CAE66EC70E0C8010E94F5
S11304F087010FB6F894DEBF0FBECDBF811122C0B5
S113050069ED70E083E792E00E94D707892BE1F45C
S113051062EE70E083E792E00E94D707892BB1F482
S11305206BEE70E083E792E00E94D707892B81F499
S113053064EF70E083E792E00E94D707892B51F4BF
S113054085E009C080E007C081E005C082E003C007
S113055083E001C084E0EC960FB6F894DEBF0FBED2
S1130560CDBFDF91CF911F910F91089562E670E0A6
S11305708DEF90E00E9487016AE071E083E792E0EA
S11305800E94D707892BD1F463E171E083E792E0FD
S11305900E94D707892BA1F46CE171E083E792E014
S11305A00E94D707892B71F465E271E083E792E03A
S11305B00E94D707892B41F484E0089580E00895D0
S11305C081E0089582E0089583E00895DF92EF9238
S11305D0FF920F931F93CF93DF93CDB7DEB7EC97C2
S11305E00FB6F894DEBF0FBECDBFD82E162F072F3F
S11305F0F42EE52EFE0131968CE3DF011D928A95DF
S1130600E9F76EE271E087E391E00E9487018823B5
S1130610A1F0EF92FF920F931F9382E491E09F93D6
S11306208F93CE0101969F938F930E94F1070FB68B
S1130630F894DEBF0FBECDBF15C0EF92FF920F93AB
S11306401F931F92DF928CE591E09F938F93CE01CD
S113065001969F938F930E94F1070FB6F894DEBF23
S11306600FBECDBF6BE771E0CE0101960E948701FA
S1130670811106C080911303823021F085E003C00C
S113068081E001C082E0EC960FB6F894DEBF0FBEA5
S1130690CDBFDF91CF911F910F91FF90EF90DF902D
S11306A008958091F4019091F5012091F201309127
S11306B0F301821B930B08952091F2013091F30111
S11306C08091F4019091F5012817390784F4809101
S11306D0F2019091F3019C012F5F3F4F3093F3019E
S11306E02093F201FC01ED58FD4F808108950E9492
S11306F05E0180E008950F931F93CF93DF932FEF54
S113070030E742E0215030404040E1F700C00000B3
S1130710C82FD92F00E010E005C00F5F1F4F0E94C3
S11307205C0389930E94510318161906B4F3C80197
S1130730DF91CF911F910F910895813019F082308C
S113074049F00895FA01818190E0909361008093CB
S1130750600008951092EB011092EA0108951F922F
S11307600F920FB60F9211242F938F939F93EF93B1
S1130770FF932FB7F894E091F401F091F5018CB157
S1130780ED58FD4F80838091F4019091F50101961D
S11307909093F5018093F4018091F4019091F50117
S11307A0803A910541F41092F5011092F4011092EF
S11307B0F3011092F2012FBFFF91EF919F918F915E
S11307C02F910F900FBE0F901F9018951F920F92AC
S11307D00FB60F9211242F933F938F939F93EF9310
S11307E0FF932091EA013091EB018091EC0190910B
S11307F0ED01281739073CF48091EA019091EB014F
S11308008D37910521F41092EB011092EA01809149
S1130810EA019091EB019C012F5F3F4F3093EB0174
S11308202093EA01FC01EA50FE4F808188BB80914D
S11308306000909161009DBD8CBDFF91EF919F91EF
S11308408F913F912F910F900FBE0F901F9018958D
S1130850CF93DF93CDB7DEB7C25AD1090FB6F89460
S1130860DEBF0FBECDBF8FEF87BB9EEF98BBE6EF19
S1130870F1E08083118282E090E09093ED01809317
S1130880EC011092EB011092EA0160E072EC81E05D
S113089090E00E940005789487EA91E00E94280580
S11308A00E9408028823E1F383E00E941E0280E094
S11308B00E94D30180E00E949E010E94B602833010
S11308C031F46CEB71E087EC91E00E94530240ED4F
S11308D051E066ED71E080E00E94E6028FEF88BB94
S11308E00F2EF6E93F2EF02DCE0101964C016E013C
S11308F097E9C90ED11C5E01E1EAAE0EB11C0F2EC0
S1130900F0E96F2EF1E07F2EF02D5C2C4D2CF401DC
S1130910232D11922A95E9F7C4010E947B037C01DF
S113092065EE71E0C4010E94D7078C011E141F04F8
S11309300CF05CC0892B09F459C08FE388BB6AE3CF
S113094070E0C8010E94AF077C01AC014819590945
S1130950081919090B5F1F4F401B510BBC01615053
S11309607109852D942D0E94C807F501118210820A
S1130970BF92AF927F926F92DF92CF920E94130840
S1130980F50140815181B7016F5F7F4F852D942D13
S11309900E94C807F6012080018110E0005311096C
S11309A0B7016D5F7F4FA801852D942D0E94C80764
S11309B0F601E00FF11F108288B3922D90958927DC
S11309C088BB452D542DB801822D0E949D0365EEF0
S11309D071E0C7010E94D7078C010F900F900F9010
S11309E00F900F900F90892B09F0A9CFFFEF25EA04
S11309F08EE0F15020408040E1F700C0000087CF36
S1130A00599A2AB128692AB920B5266820BD0E94BE
S1130A104C0620E030E040E051E40E94DA069B01FD
S1130A20AC0160E074E284EF9AE40E94A40520E043
S1130A3030E040E85FE30E9437050E9447070E94C8
S1130A40160669B970BD08958CB95D9BFECF0895F3
S1130A50CF93DF93EC018881882331F021960E94A3
S1130A60240589918111FBCFDF91CF9108955058CE
S1130A70BB27AA270E944F050C94A0060E94920649
S1130A8038F00E94990620F039F49F3F19F426F4B7
S1130A900C948F060EF4E095E7FB0C948906E92F7D
S1130AA00E94B10658F3BA176207730784079507C3
S1130AB020F079F4A6F50C94D3060EF4E0950B2EF1
S1130AC0BA2FA02D0B01B90190010C01CA01A0019C
S1130AD01124FF27591B99F0593F50F4503E68F1F7
S1130AE01A16F040A22F232F342F4427585FF3CF38
S1130AF0469537952795A795F0405395C9F77EF409
S1130B001F16BA0B620B730B840BBAF09150A1F051
S1130B10FF0FBB1F661F771F881FC2F70EC0BA0FD7
S1130B20621F731F841F48F4879577956795B7955F
S1130B30F7959E3F08F0B0CF9395880F08F099275A
S1130B40EE0F9795879508950E94B8050C94A0061A
S1130B500E94990658F00E94920640F029F45F3FE3
S1130B6029F00C94890651110C94D4060C948F0628
S1130B700E94B10668F39923B1F3552391F3951BB1
S1130B80550BBB27AA2762177307840738F09F5FAA
S1130B905F4F220F331F441FAA1FA9F335D00E2E17
S1130BA03AF0E0E832D091505040E695001CCAF784
S1130BB02BD0FE2F29D0660F771F881FBB1F261747
S1130BC037074807AB07B0E809F0BB0B802DBF011E
S1130BD0FF2793585F4F3AF09E3F510578F00C94ED
S1130BE089060C94D4065F3FE4F3983ED4F38695CB
S1130BF077956795B795F7959F5FC9F7880F911D0E
S1130C009695879597F90895E1E0660F771F881FF9
S1130C10BB1F621773078407BA0720F0621B730BAC
S1130C20840BBA0BEE1F88F7E09508950E941D0609
S1130C306894B1110C94D40608950E94B90688F002
S1130C409F5798F0B92F9927B751B0F0E1F0660F8C
S1130C50771F881F991F1AF0BA95C9F714C0B130CD
S1130C6091F00E94D306B1E008950C94D306672F47
S1130C70782F8827B85F39F0B93FCCF386957795FC
S1130C806795B395D9F73EF49095809570956195E5
S1130C907F4F8F4F9F4F0895E89409C097FB3EF410
S1130CA090958095709561957F4F8F4F9F4F9923B5
S1130CB0A9F0F92F96E9BB279395F6958795779533
S1130CC06795B795F111F8CFFAF4BB0F11F460FFF3
S1130CD01BC06F5F7F4F8F4F9F4F16C0882311F04B
S1130CE096E911C0772321F09EE8872F762F05C05F
S1130CF0662371F096E8862F70E060E02AF09A95FA
S1130D00660F771F881FDAF7880F9695879597F9EE
S1130D10089597F99F6780E870E060E008959FEF79
S1130D2080EC089500240A9416161706180609067E
S1130D30089500240A94121613061406050608954D
S1130D40092E0394000C11F4882352F0BB0F40F4D5
S1130D50BF2B11F460FF04C06F5F7F4F8F4F9F4F15
S1130D60089557FD9058440F551F59F05F3F71F097
S1130D704795880F97FB991F61F09F3F79F08795FE
S1130D800895121613061406551FF2CF4695F1DF87
S1130D9008C0161617061806991FF1CF8695710517
S1130DA0610508940895E894BB2766277727CB014B
S1130DB097F908950E94ED060C94A0060E949206ED
S1130DC038F00E94990620F0952311F00C948906BE
S1130DD00C948F0611240C94D4060E94B10670F36F
S1130DE0959FC1F3950F50E0551F629FF001729FCC
S1130DF0BB27F00DB11D639FAA27F00DB11DAA1FDB
S1130E00649F6627B00DA11D661F829F2227B00D27
S1130E10A11D621F739FB00DA11D621F839FA00DB2
S1130E20611D221F749F3327A00D611D231F849F02
S1130E30600D211D822F762F6A2F11249F57504059
S1130E409AF0F1F088234AF0EE0FFF1FBB1F661FD4
S1130E50771F881F91505040A9F79E3F510580F09D
S1130E600C9489060C94D4065F3FE4F3983ED4F3C3
S1130E70869577956795B795F795E7959F5FC1F741
S1130E80FE2B880F911D9695879597F908950E94DA
S1130E90B906E8F09E37E8F09639B8F49E3848F47D
S1130EA0672F782F8827985FF9CF86957795679570
S1130EB093959539D0F3B62FB1706B0F711D811DC9
S1130EC020F487957795679593950C946B070C940C
S1130ED086070C94D406882371F4772321F0985064
S1130EE0872B762F07C0662311F499270DC09051E4
S1130EF0862B70E060E02AF09A95660F771F881FB2
S1130F00DAF7880F9695879597F908959F3F31F002
S1130F10915020F4879577956795B795880F911D23
S1130F209695879597F90895FB01DC0102C001901D
S1130F300D9241505040D8F708956817790768F426
S1130F40FB01DC01E40FF51FA40FB51F02C00290E2
S1130F500E9241505040D8F708950C949407FC0128
S1130F608191861721F08823D9F79927089531971D
S1130F70CF010895FB01DC014150504030F08D91C8
S1130F800190801919F40020B9F7881B990B089572
S1130F90FB01DC014150504048F001900D920020CB
S1130FA0C9F701C01D9241505040E0F70895FB017C
S1130FB051915523A9F0BF01DC014D914517411111
S1130FC0E1F759F4CD010190002049F04D9140150D
S1130FD04111C9F3FB014111EFCF81E090E001978A
S1130FE00895AEE0B0E0E7EFF7E00C94E60D0D896C
S1130FF01E8986E08C831A8309838FEF9FE79E8383
S11310008D83AE01475E5F4F6F89788DCE01019667
S11310100E942C08EF81F885E00FF11F10822E96B4
S1131020E4E00C94020EAEE0B0E0E9E1F8E00C94E8
S1131030E80D85E08C838B899C899A838983AE0132
S1131040495E5F4F6D897E89CE0101960E94A90B8E
S11310502E96E2E00C94040EABE0B0E0E2E3F8E09C
S11310600C94D80D6C017B018A01FC011782168255
S1131070838181FFCCC1CE0101963C01F6019381AD
S1131080F70193FD859193FF81917F01882309F4F2
S1131090BAC1853239F493FD859193FF81917F0123
S11310A0853229F4B60190E00E94220DE7CF912CFD
S11310B0212C312CFFE1F315D8F08B3279F038F480
S11310C0803279F08332A1F4232D20611DC08D324A
S11310D061F0803369F4232D216016C0832D826072
S11310E0382EE32DE4603E2E2AC0F32DF8601DC097
S11310F037FC2DC020ED280F2A3040F08E32B9F491
S113110036FC81C1232D2064322E19C036FE06C060
S11311108AE0989E200D1124922E11C0EAE02E9EA2
S1131120200D1124222EF32DF0623F2E08C08C36A0
S113113021F4832D8068382E02C0883641F4F701EB
S113114093FD859193FF81917F018111B3CF982FF6
S11311509F7D9554933028F40C5F1F4F9FE3998330
S11311600DC0833631F0833771F0833509F059C0EF
S113117021C0F801808189830E5F1F4F88248394E6
S1131180912C530113C02801F2E04F0E511CF801B9
S1131190A080B18036FE03C0692D70E002C06FEFFD
S11311A07FEFC5010E94D90C4C018201F32DFF771A
S11311B03F2E16C0280122E0420E511CF801A080E7
S11311C0B18036FE03C0692D70E002C06FEF7FEF7F
S11311D0C5010E94CE0C4C01F32DF0683F2E820114
S11311E033FC1BC0822D90E088169906B0F4B6013A
S11311F080E290E00E94220D2A94F4CFF50137FC9E
S1131200859137FE81915F01B60190E00E94220D25
S113121021102A9421E0821A91088114910471F713
S1131220E8C0843611F0893641F5F80137FE07C06D
S113123060817181828193810C5F1F4F08C060813E
S11312407181072E000C880B990B0E5F1F4FF32D35
S1131250FF763F2E97FF09C0909580957095619514
S11312607F4F8F4F9F4FF0683F2E2AE030E0A3015D
S11312700E94770D882E861845C0853731F4232DBA
S11312802F7EB22E2AE030E025C0932D997FB92E0F
S11312908F36C1F018F4883579F0B5C0803719F06D
S11312A0883721F0B0C0E92FE061BE2EB4FE0DC036
S11312B0FB2DF460BF2E09C034FE0AC0292F26601E
S11312C0B22E06C028E030E005C020E130E002C0C4
S11312D020E132E0F801B7FE07C0608171818281AC
S11312E093810C5F1F4F06C06081718180E090E0A4
S11312F00E5F1F4FA3010E94770D882E8618FB2DC9
S1131300FF773F2E36FE0DC0232D2E7FA22E89148B
S113131058F434FE0BC032FC09C0832D8E7EA82EF7
S113132005C0B82CA32C03C0B82C01C0B92CA4FE52
S11313300FC0FE01E80DF11D8081803321F49A2D48
S1131340997EA92E09C0A2FE06C0B394B39404C02A
S11313508A2D867809F0B394A3FC11C0A0FE06C0C0
S1131360B21488F4280C922C9B180EC0B21460F4AA
S1131370B60180E290E00E94220DB394F7CFB2143C
S113138018F42B1802C0982C212CA4FE10C0B6010E
S113139080E390E00E94220DA2FE17C0A1FC03C0CE
S11313A088E790E002C088E590E0B6010CC08A2D81
S11313B0867859F0A1FE02C08BE201C080E2A7FC4E
S11313C08DE2B60190E00E94220D891438F4B60132
S11313D080E390E00E94220D9A94F7CF8A94F3015F
S11313E0E80DF11D8081B60190E00E94220D81106C
S11313F0F5CF222009F442CEB60180E290E00E94AB
S1131400220D2A94F6CFF6018681978102C08FEFD0
S11314109FEF2B96E2E10C94F40D20FD09C0FC0132
S113142023FD05C022FF02C073836283518340837E
S1131430089544FD17C046FD17C0AB01BC01DA0195
S1131440FB01AA0FBB1FEE1FFF1F1094D1F74A0F19
S11314505B1F6E1F7F1FCB01BA01660F771F881FAA
S1131460991F09C033E001C034E0660F771F881F5D
S1131470991F3150D1F7620F711D811D911D08957F
S11314800F931F93CF93DF938C01C8010E94E40C48
S1131490EC0197FD08C00E94BA0C892BB1F7B80182
S11314A0CE010E945E0DCE01DF91CF911F910F916D
S11314B008958F929F92AF92BF92EF92FF920F93F3
S11314C01F93CF93DF938C01D62F7A01B22E0E9403
S11314D0E40C9C0133272B32310531F02D323105D8
S11314E061F48B2D8068B82ED15011F480E068C06F
S11314F0C8010E94E40C97FDF9CFCB2DCD7F2B2D95
S1131500207309F58033F9F4AA24AA94AD0E09F4E2
S113151043C0C8010E94E40C97FD3EC09C012F7D8E
S113152033272835310549F4C264D250A9F1C801E2
S11315300E94E40C97FF07C02FC0B6FE02C0C26031
S113154001C0C261DA2D812C912C540120ED280FA9
S1131550283080F0C4FF04C0B8010E945E0D19C099
S11315602A3040F0C6FFF8CF2F7D3FEE320F3630E1
S113157098F727504C2FC501B4010E94190A4B015A
S11315805C01C260D15059F0C8010E94E40C97FF7D
S1131590DDCFC1FD04C0AACF812C912C5401C7FF1B
S11315A008C0B094A09490948094811C911CA11CB8
S11315B0B11C2C2FB501A401C7010E940D0A81E0C2
S11315C0DF91CF911F910F91FF90EF90BF90AF905B
S11315D09F908F900895A0E2B0E0E1EFFAE00C94C0
S11315E0DB0D5C01962E7A01F9018E010F5F1F4F0E
S11315F0680180E2D8011D928A95E9F7D501139616
S11316008C9080E090E0612C712C30E061E070E01F
S113161083FC259183FE21918F01522E211103C059
S113162080E090E092C02E3511F4009751F1432FE1
S113163050E0481759073CF42D3559F12D3219F46F
S1131640772009F103C0772009F46AC0452D469537
S113165046954695D601A40FB11D452D47708B01C3
S113166002C0000F111F4A95E2F7A8015C91452BB7
S11316704C93651459F0561410F45394E7CF5A94CC
S1131680E5CF31E004C07724739401C0712C019636
S1131690BFCF772019F08E8180628E83311103C011
S11316A08824839417C0F6019E012F5D3F4F8081EB
S11316B0809581932E173F07D1F7F2CFE114F104FF
S11316C029F0D7018C93F70131967F019A94812CEC
S11316D09920F9F0C5010E94E40C97FD18C0FC01A3
S11316E0FF2723E0F595E7952A95E1F7EC0DFD1D1D
S11316F0208130E0AC014770552702C0359527950D
S11317004A95E2F720FDDACFB5010E945E0D811003
S113171087CFE114F10411F0D7011C92C80115C060
S1131720422F469546954695D601A40FB11D422FEA
S113173047708B0102C0000F111F4A95E2F7A80100
S11317405C91452B4C93622EA2CFA096EFE00C94B3
S1131750F70DA0E0B0E0EFEAFBE00C94DB0D6C01C8
S1131760EB015A01FC0117821682512CF601E38029
S1131770FE01E3FC8591E3FE8191182FEF0188239C
S113178009F4EEC090E00E94BA0C892B21F0C60146
S11317900E94400AEBCF153241F4FE01E3FC15919F
S11317A0E3FE1191EF01153281F4C6010E94E40CAD
S11317B097FDD4C0412F50E09C01332724173507EF
S11317C0A9F2B6010E945E0DCBC01A3239F4E3FCD3
S11317D01591E3FE1191EF0101E001C000E0F12C4D
S11317E020ED210F2A3080F402606F2D70E080E03C
S11317F090E040E20E94190AF62EFE01E3FC1591E6
S1131800E3FE1191EF01ECCF01FF03C0F11003C01F
S1131810A7C0FF24FA94183619F01C3651F010C0F2
S1131820FE01E3FC1591E3FE1191EF01183641F43A
S113183008600460FE01E3FC1591E3FE1191EF01E1
S1131840112309F48DC0612F70E084E590E00E94BB
S1131850C30C892B09F484C000FD07C0F501808006
S11318609180C50102965C0102C0812C912C1E3628
S113187051F4F6014681578160E070E0202FC401E5
S11318800E940D0A73CF1336A9F401FD02C0FF2490
S1131890F394C6010E94E40C97FD60C08114910486
S11318A029F0F4018083C40101964C01FA94F110EB
S11318B0F0CF50C01B3559F49E01A4016F2DC60111
S11318C00E94EB0AEC01892B09F044C03EC0C6011A
S11318D00E94400A97FD42C01F3661F128F4143675
S11318E039F1193651F128C0133771F0153701F168
S11318F023C08114910429F0F4016082C40101968B
S11319004C01FA94FF2071F0C6010E94E40C3C01E2
S113191097FD08C00E94BA0C892B59F3B601C30184
S11319200E945E0D81149104A9F0F401108212C08A
S1131930006203C0006101C00064202FA4016F2D68
S1131940C6010E94590A811105C0F6018381807382
S113195029F406C000FD0ACF539408CF552019F08E
S1131960852D90E002C08FEF9FEFCDB7DEB7EFE09B
S11319700C94F70D91110C94D50D803219F0895007
S11319808550C8F70895FC010590061621F0002043
S1131990D9F7C00108953197CF010895FC0105904E
S11319A0615070400110D8F7809590958E0F9F1F5D
S11319B00895FC016150704001900110D8F78095A2
S11319C090958E0F9F1F0895CF93DF93EC012B8189
S11319D020FF33C026FF0AC02F7B2B838E819F817B
S11319E001969F838E838A8190E029C022FF0FC0D5
S11319F0E881F9818081082E000C990B009719F475
S1131A0020622B831AC03196F983E8830EC0EA85DD
S1131A10FB85099597FF09C02B81019611F080E29F
S1131A2001C080E1822B8B8308C02E813F812F5F10
S1131A303F4F3F832E83992702C08FEF9FEFDF91A3
S1131A40CF9108950F931F93CF93DF93FB012381CD
S1131A5021FD03C08FEF9FEF2CC022FF16C04681EB
S1131A605781248135814217530744F4A081B18101
S1131A709D012F5F3F4F318320838C9326813781D3
S1131A802F5F3F4F3783268314C08B01EC01FB018A
S1131A900084F185E02D0995892BE1F6D80116968D
S1131AA08D919C911797019617969C938E931697F8
S1131AB0CE01DF91CF911F910F910895FB012381F6
S1131AC020FF12C026FD10C08F3F3FEF930761F047
S1131AD082832F7D2064238326813781215031091D
S1131AE037832683992708958FEF9FEF0895FA018E
S1131AF0AA27283051F1203181F1E8946F936E7F49
S1131B006E5F7F4F8F4F9F4FAF4FB1E03ED0B4E039
S1131B103CD0670F781F891F9A1FA11D680F791F7A
S1131B208A1F911DA11D6A0F711D811D911DA11D8B
S1131B3020D009F468943F912AE0269F112430199B
S1131B40305D3193DEF6CF010895462F4770405D36
S1131B504193B3E00FD0C9F7F6CF462F4F70405DE5
S1131B604A3318F0495D31FD4052419302D0A9F740
S1131B70EACFB4E0A6959795879577956795BA953A
S1131B80C9F700976105710508959B01AC010A2E00
S1131B9006945795479537952795BA95C9F7620FD7
S1131BA0731F841F951FA01D0895992788270895E2
S1131BB02F923F924F925F926F927F928F929F9259
S1131BC0AF92BF92CF92DF92EF92FF920F931F9347
S1131BD0CF93DF93CDB7DEB7CA1BDB0B0FB6F894F8
S1131BE0DEBF0FBECDBF09942A88398848885F8438
S1131BF06E847D848C849B84AA84B984C884DF80A9
S1131C00EE80FD800C811B81AA81B981CE0FD11D8C
S1131C100FB6F894DEBF0FBECDBFED010895F89462
S1051C20FFCFF0
S1131C2288130D0A4F4B0D0A007768617449676F78
S1131C32743D25730041542B4349504D4F44453D57
S1131C4225640041542B4349504D55583D256400A9
S1131C52415445300041540041542B434950434CB4
S1131C624F53453D310041542B43574D4F44453D5D
S1131C7225640041542B43574A41503D2225732287
S1131C822C22257322000D0A5749464920434F4E00
S1131C924E45435445440D0A002B43574A41503A9A
S1131CA231002B43574A41503A32002B43574A41A1
S1131CB2503A33002B43574A41503A340041542B93
S1131CC2434950535441545553005354415455536A
S1131CD23A32005354415455533A33005354415405
S1131CE255533A34005354415455533A35004349F9
S1131CF2504D55583A300041542B4349504D555894
S1131D023F0041542B43495053544152543D2254B1
S1131D124350222C222573222C25730041542B4339
S1131D22495053544152543D222564222C22544397
S1131D3250222C222573222C257300434F4E4E45EC
S1131D4243540D0A0041542B43495053454E443DDC
S1131D522564000D0A4F4B0D0A3E000D0A53454EF1
S1131D6244204F4B0D0A004845492056454C4B4FE1
S1131D724D4D454E2056455244454E00666C6573A2
S1131D826B6565736B6500587065726961207A00D2
S1131D923130303030003139322E3136382E34334E
S10D1DA22E323534002B4950440062
S9030000FC
