S015000041546D65676131365F574946492E73726563EB
S11300000C942A000C9447000C9447000C9447006D
S11300100C9447000C9447000C9447000C94470040
S11300200C94D4030C9447000C9447000C949D0347
S11300300C9447000C9447000C9447000C94470020
S11300400C9447000C9447000C9447000C94470010
S11300500C94470011241FBECFE5D4E0DEBFCDBF12
S113006012E0A0E6B0E0EEEDF4E102C005900D92DE
S1130070AA31B107D9F723E0AAE1B2E001C01D9289
S1130080A13CB207E1F70E9416040C946D0A0C948B
S113009000002F923F924F925F926F927F928F92C5
S11300A09F92AF92BF92CF92DF92EF92FF920F9303
S11300B01F93CF93DF93CDB7DEB72C970FB6F89489
S11300C0DEBF0FBECDBF9E838D832DB73EB73C8769
S11300D02B87FC0101900020E9F731975F01A81AF2
S11300E0B90ABB24A5014150510958874F838DB7E4
S11300F09EB78A199B090FB6F8949EBF0FBE8DBF99
S1130100ADB7BEB711964D0180911E0290911F02AA
S1130110A0912002B0912102803F984DAF4FBF4F74
S113012061F410921E0210921F021092200210928B
S1130130210282E08093C0039BC019821A821B8231
S11301401C822F803884280C391C94012F5F3F4F68
S11301503A8729878091C003843011F41092C00338
S1130160E0E2F3E001900020E9F73197CF018052FB
S113017093406C01E12CF12CC114D104E104F1048D
S113018009F451C08FEC97E00197F1F700C000002B
S113019029813A814B815C812F5F3F4F4F4F5F4FE5
S11301A029833A834B835C83E0E2F3E001900020EF
S11301B0E9F73197CF0180529340A0E0B0E0C81630
S11301C0D906EA06FB0679F500E213E0412C512C2E
S11301D032014F81588569857A85C4010E94490797
S11301E0D8018D918D01F1018083A5016D817E81FE
S11301F0C4010E945B07892B61F410921E021092C5
S11302001F02109220021092210281E08093C00309
S11302102FC0FFEF4F1A5F0A6F0A7F0A4C145D0468
S11302206E047F04B1F68FEC97E00197F1F700C0FC
S1130230000029813A814B815C812F5F3F4F4F4FF2
S11302405F4F29833A834B835C8380911E02909194
S11302501F02A0912002B0912102805F984DAF4F00
S1130260BF4F281739074A075B0708F473CF59CFE4
S11302704B855C850FB6F8945EBF0FBE4DBF2C96C0
S11302800FB6F894DEBF0FBECDBFDF91CF911F91A3
S11302900F91FF90EF90DF90CF90BF90AF909F9021
S11302A08F907F906F905F904F903F902F90089524
S11302B080EAE0E2F3E0DF011D928A95E9F710920B
S11302C02502109224021092230210922202089511
S11302D0CF93DF93EC0184E08093C003CE010E94AE
S11302E049008091C0038823C9F3DF91CF91089519
S11302F00E94680181E09091C003923009F480E08B
S113030008950F931F93CF93DF938C01EB010E9409
S11303105801C8010E94D4048AEC90E00E94D404DD
S1130320CE010E947801DF91CF911F910F91089522
S11303300F931F93CF93DF93CDB7DEB764970FB6B8
S1130340F894DEBF0FBECDBF8E010F5F1F4F94E147
S1130350F80111929A95E9F71F928F9389E690E03C
S11303609F938F931F930F930E9483071C8A62E6C7
S113037070E0C8010E9481010F900F900F900F90C0
S11303800F900F9064960FB6F894DEBF0FBECDBFEA
S1130390DF91CF911F910F9108950F931F93CF93E6
S11303A0DF93CDB7DEB764970FB6F894DEBF0FBE08
S11303B0CDBF8E010F5F1F4F94E1F80111929A9502
S11303C0E9F71F928F9387E790E09F938F931F9392
S11303D00F930E9483071C8A62E670E0C8010E94A2
S11303E081010F900F900F900F900F900F906496D3
S11303F00FB6F894DEBF0FBECDBFDF91CF911F9132
S11304000F910895CF93C5E062E670E084E890E030
S11304100E94810181110AC062E670E089E890E0DF
S11304200E948101811102C0C15071F7CF910895DA
S11304300F931F93CF93DF93CDB7DEB764970FB6B7
S1130440F894DEBF0FBECDBF8E010F5F1F4F94E146
S1130450F80111929A95E9F71F928F938AE990E037
S11304609F938F931F930F930E9483071C8A62E6C6
S113047070E0C8010E9481010F900F900F900F90BF
S11304800F900F9064960FB6F894DEBF0FBECDBFE9
S1130490DF91CF911F910F9108950F931F93CF93E5
S11304A0DF93CDB7DEB7EC970FB6F894DEBF0FBE7F
S11304B0CDBF8E010F5F1F4F2CE3F80111922A95D7
S11304C0E9F77F936F939F938F9387EA90E09F93CD
S11304D08F931F930F930E9483071CAE6AEB70E007
S11304E0C8010E9481010FB6F894DEBF0FBECDBFD4
S11304F0811122C06DEC70E080E293E00E946907F4
S1130500892BE1F466ED70E080E293E00E946907D4
S1130510892BB1F46FED70E080E293E00E946907EB
S1130520892B81F468EE70E080E293E00E94690711
S1130530892B51F485E009C080E007C081E005C043
S113054082E003C083E001C084E0EC960FB6F89427
S1130550DEBF0FBECDBFDF91CF911F910F910895E4
S113056062E670E081EF90E00E9481016EEF70E03E
S113057080E293E00E946907892BD1F467E071E07F
S113058080E293E00E946907892BA1F460E171E0A5
S113059080E293E00E946907892B71F469E171E0BC
S11305A080E293E00E946907892B41F484E0089576
S11305B080E0089581E0089582E0089583E008953D
S11305C0DF92EF92FF920F931F93CF93DF93CDB7F8
S11305D0DEB7EC970FB6F894DEBF0FBECDBFD82EB2
S11305E0162F072FF42EE52EFE0131968CE3DF0142
S11305F01D928A95E9F762E271E08BE291E00E9434
S113060081018823A1F0EF92FF920F931F9386E359
S113061091E09F938F93CE0101969F938F930E94B5
S113062083070FB6F894DEBF0FBECDBF15C0EF929F
S1130630FF920F931F931F92DF9280E591E09F93A7
S11306408F93CE0101969F938F930E9483070FB6D9
S1130650F894DEBF0FBECDBF6FE671E0CE01019608
S11306600E948101811106C08091C003823021F073
S113067085E003C081E001C082E0EC960FB6F894F7
S1130680DEBF0FBECDBFDF91CF911F910F91FF90C1
S1130690EF90DF900895EF92FF920F931F93CF9303
S11306A0DF93CDB7DEB764970FB6F894DEBF0FBE05
S11306B0CDBF8C01CE0101967C0184E1F70111923A
S11306C08A95E9F7F80101900020E9F7CF01801B32
S11306D0910B01969F938F9389E791E09F938F935A
S11306E0FF92EF920E9483071C8A67E871E0C701BA
S11306F00E9481016FE871E0C8010E9481010F909E
S11307000F900F900F900F900F90811106C0809161
S1130710C003823021F085E003C081E001C082E0A3
S113072064960FB6F894DEBF0FBECDBFDF91CF91B4
S11307301F910F91FF90EF9008951F920F920FB6A3
S11307400F9211242F938F939F93EF93FF932FB7BF
S1130750F894E0912402F09125028CB1E05EFC4F04
S11307608083809124029091250201969093250222
S1130770809324028091240290912502803A91056D
S113078041F4109225021092240210922302109236
S113079022022FBFFF91EF919F918F912F910F9084
S11307A00FBE0F901F9018951F920F920FB60F92C5
S11307B011242F933F938F939F93EF93FF93209153
S11307C01A0230911B0280911C0290911D0228177D
S11307D039073CF480911A0290911B028D379105E0
S11307E021F410921B0210921A0280911A02909125
S11307F01B029C012F5F3F4F30931B0220931A0270
S1130800FC01ED55FD4F808188BB80916000909183
S113081061009DBD8CBDFF91EF919F918F913F91A0
S11308202F910F900FBE0F901F901895CF93DF93C9
S1130830CDB7DEB7C659D1090FB6F894DEBF0FBEE7
S1130840CDBF60E072EC81E090E00E94AC04E3EA8A
S1130850F2E01FEF1083118282E090E090931D027A
S113086080931C0210921B0210921A0278948AEB55
S113087091E00E94D40417BB18BA0E940202882394
S1130880E1F38FEC91E00E94D4048FEF88BB83E006
S11308900E94180280E00E94CD0180E00E9498012D
S11308A00E94B002833031F46DED71E088EE91E086
S11308B00E944D022FEF81E19AE721508040904041
S11308C0E1F700C0000041EF51E067EF71E080E024
S11308D00E94E00286E092E00E94D4040F2EF2E32C
S11308E0FF2EF02D8E010F5F1F4FEFEFF5EA2EE084
S11308F0E150F0402040E1F700C000000E94B00247
S1130900833039F46DED71E088EE91E00E944D0280
S113091009C0823039F441EF51E067EF71E080E0C3
S11309200E94E002F8012F2D11922A95E9F78AE03E
S1130930EFE0F2E0D80101900D928A95E1F7C80149
S11309400E944B038FEF91E1EAE781509040E04031
S1130950E1F700C00000C9CF599A2AB128692AB921
S113096020B5266820BD0E94F80520E030E040E074
S113097051E40E9486069B01AC0160E074E284EFBE
S11309809AE40E94500520E030E040E85FE30E94D2
S1130990E3040E94F3060E94C20569B970BD08957C
S11309A08CB95D9BFECF0895CF93DF93EC018881D2
S11309B0882331F021960E94D00489918111FBCFC4
S11309C0DF91CF9108955058BB27AA270E94FB04BA
S11309D00C944C060E943E0638F00E94450620F016
S11309E039F49F3F19F426F40C943B060EF4E09579
S11309F0E7FB0C943506E92F0E945D0658F3BA17FD
S1130A00620773078407950720F079F4A6F50C9420
S1130A107F060EF4E0950B2EBA2FA02D0B01B90121
S1130A2090010C01CA01A0011124FF27591B99F060
S1130A30593F50F4503E68F11A16F040A22F232F6C
S1130A40342F4427585FF3CF469537952795A795BC
S1130A50F0405395C9F77EF41F16BA0B620B730B63
S1130A60840BBAF09150A1F0FF0FBB1F661F771FD4
S1130A70881FC2F70EC0BA0F621F731F841F48F489
S1130A80879577956795B795F7959E3F08F0B0CF12
S1130A909395880F08F09927EE0F979587950895F9
S1130AA00E9464050C944C060E94450658F00E946E
S1130AB03E0640F029F45F3F29F00C9435065111AD
S1130AC00C9480060C943B060E945D0668F39923FF
S1130AD0B1F3552391F3951B550BBB27AA27621736
S1130AE07307840738F09F5F5F4F220F331F441F43
S1130AF0AA1FA9F335D00E2E3AF0E0E832D0915077
S1130B005040E695001CCAF72BD0FE2F29D0660F63
S1130B10771F881FBB1F261737074807AB07B0E8A6
S1130B2009F0BB0B802DBF01FF2793585F4F3AF0AC
S1130B309E3F510578F00C9435060C9480065F3F77
S1130B40E4F3983ED4F3869577956795B795F79532
S1130B509F5FC9F7880F911D9695879597F908951A
S1130B60E1E0660F771F881FBB1F621773078407B6
S1130B70BA0720F0621B730B840BBA0BEE1F88F7C5
S1130B80E09508950E94C9056894B1110C948006FB
S1130B9008950E94650688F09F5798F0B92F992709
S1130BA0B751B0F0E1F0660F771F881F991F1AF054
S1130BB0BA95C9F714C0B13091F00E947F06B1E034
S1130BC008950C947F06672F782F8827B85F39F033
S1130BD0B93FCCF3869577956795B395D9F73EF4ED
S1130BE090958095709561957F4F8F4F9F4F089595
S1130BF0E89409C097FB3EF49095809570956195B3
S1130C007F4F8F4F9F4F9923A9F0F92F96E9BB2768
S1130C109395F695879577956795B795F111F8CFE4
S1130C20FAF4BB0F11F460FF1BC06F5F7F4F8F4F4F
S1130C309F4F16C0882311F096E911C0772321F045
S1130C409EE8872F762F05C0662371F096E8862FDD
S1130C5070E060E02AF09A95660F771F881FDAF734
S1130C60880F9695879597F9089597F99F6780E877
S1130C7070E060E008959FEF80EC089500240A94EA
S1130C801616170618060906089500240A94121663
S1130C901306140605060895092E0394000C11F496
S1130CA0882352F0BB0F40F4BF2B11F460FF04C043
S1130CB06F5F7F4F8F4F9F4F089557FD9058440F9C
S1130CC0551F59F05F3F71F04795880F97FB991FA7
S1130CD061F09F3F79F08795089512161306140664
S1130CE0551FF2CF4695F1DF08C0161617061806F1
S1130CF0991FF1CF86957105610508940895E894CC
S1130D00BB2766277727CB0197F908950E94990698
S1130D100C944C060E943E0638F00E94450620F0D2
S1130D20952311F00C9435060C943B0611240C9475
S1130D3080060E945D0670F3959FC1F3950F50E005
S1130D40551F629FF001729FBB27F00DB11D639F79
S1130D50AA27F00DB11DAA1F649F6627B00DA11D1F
S1130D60661F829F2227B00DA11D621F739FB00DC5
S1130D70A11D621F839FA00D611D221F749F332735
S1130D80A00D611D231F849F600D211D822F762FCE
S1130D906A2F11249F5750409AF0F1F088234AF0AB
S1130DA0EE0FFF1FBB1F661F771F881F9150504017
S1130DB0A9F79E3F510580F00C9435060C948006EB
S1130DC05F3FE4F3983ED4F3869577956795B7959E
S1130DD0F795E7959F5FC1F7FE2B880F911D9695B8
S1130DE0879597F908950E946506E8F09E37E8F024
S1130DF09639B8F49E3848F4672F782F8827985F7F
S1130E00F9CF86957795679593959539D0F3B62F55
S1130E10B1706B0F711D811D20F4879577956795CF
S1130E2093950C9417070C9432070C94800688232E
S1130E3071F4772321F09850872B762F07C066230F
S1130E4011F499270DC09051862B70E060E02AF0D0
S1130E509A95660F771F881FDAF7880F96958795FE
S1130E6097F908959F3F31F0915020F48795779535
S1130E706795B795880F911D9695879597F908956D
S1130E80FB01DC0102C001900D9241505040D8F7A3
S1130E9008956817790768F4FB01DC01E40FF51F76
S1130EA0A40FB51F02C002900E9241505040D8F7D3
S1130EB008950C944007FB01DC014150504030F090
S1130EC08D910190801919F40020B9F7881B990BB2
S1130ED00895FB0151915523A9F0BF01DC014D9107
S1130EE045174111E1F759F4CD010190002049F073
S1130EF04D9140154111C9F3FB014111EFCF81E040
S1130F0090E001970895AEE0B0E0E9E8F7E00C94D2
S1130F10440A0D891E8986E08C831A8309838FEF26
S1130F209FE79E838D83AE01475E5F4F6F89788D07
S1130F30CE0101960E94A507EF81F885E00FF11F0D
S1130F4010822E96E4E00C94600AABE0B0E0EBEA89
S1130F50F7E00C94360A6C017B018A01FC011782CC
S1130F601682838181FFCCC1CE0101963C01F6013A
S1130F709381F70193FD859193FF81917F018823EC
S1130F8009F4BAC1853239F493FD859193FF8191B7
S1130F907F01853229F4B60190E00E949C09E7CFD5
S1130FA0912C212C312CFFE1F315D8F08B3279F000
S1130FB038F4803279F08332A1F4232D20611DC0EE
S1130FC08D3261F0803369F4232D216016C0832DA6
S1130FD08260382EE32DE4603E2E2AC0F32DF860A3
S1130FE01DC037FC2DC020ED280F2A3040F08E3272
S1130FF0B9F436FC81C1232D2064322E19C036FE8B
S113100006C08AE0989E200D1124922E11C0EAE0B9
S11310102E9E200D1124222EF32DF0623F2E08C0A7
S11310208C3621F4832D8068382E02C0883641F432
S1131030F70193FD859193FF81917F018111B3CFD6
S1131040982F9F7D9554933028F40C5F1F4F9FE396
S113105099830DC0833631F0833771F0833509F0FD
S113106059C021C0F801808189830E5F1F4F8824F5
S11310708394912C530113C02801F2E04F0E511CAC
S1131080F801A080B18036FE03C0692D70E002C073
S11310906FEF7FEFC5010E9491094C018201F32D8E
S11310A0FF773F2E16C0280122E0420E511CF801A2
S11310B0A080B18036FE03C0692D70E002C06FEFDE
S11310C07FEFC5010E9486094C01F32DF0683F2E85
S11310D0820133FC1BC0822D90E088169906B0F47F
S11310E0B60180E290E00E949C092A94F4CFF501B5
S11310F037FC859137FE81915F01B60190E00E9433
S11311009C0921102A9421E0821A910881149104E7
S113111071F7E8C0843611F0893641F5F80137FEDD
S113112007C060817181828193810C5F1F4F08C069
S113113060817181072E000C880B990B0E5F1F4F85
S1131140F32DFF763F2E97FF09C0909580957095FB
S113115061957F4F8F4F9F4FF0683F2E2AE030E01C
S1131160A3010E94D809882E861845C0853731F41A
S1131170232D2F7EB22E2AE030E025C0932D997FB7
S1131180B92E8F36C1F018F4883579F0B5C08037A0
S113119019F0883721F0B0C0E92FE061BE2EB4FE0B
S11311A00DC0FB2DF460BF2E09C034FE0AC0292FE8
S11311B02660B22E06C028E030E005C020E130E011
S11311C002C020E132E0F801B7FE07C060817181FE
S11311D0828193810C5F1F4F06C06081718180E022
S11311E090E00E5F1F4FA3010E94D809882E861835
S11311F0FB2DFF773F2E36FE0DC0232D2E7FA22E12
S1131200891458F434FE0BC032FC09C0832D8E7E41
S1131210A82E05C0B82CA32C03C0B82C01C0B92C2F
S1131220A4FE0FC0FE01E80DF11D8081803321F47E
S11312309A2D997EA92E09C0A2FE06C0B394B39438
S113124004C08A2D867809F0B394A3FC11C0A0FED3
S113125006C0B21488F4280C922C9B180EC0B21449
S113126060F4B60180E290E00E949C09B394F7CF49
S1131270B21418F42B1802C0982C212CA4FE10C010
S1131280B60180E390E00E949C09A2FE17C0A1FC75
S113129003C088E790E002C088E590E0B6010CC086
S11312A08A2D867859F0A1FE02C08BE201C080E24B
S11312B0A7FC8DE2B60190E00E949C09891438F4E1
S11312C0B60180E390E00E949C099A94F7CF8A9437
S11312D0F301E80DF11D8081B60190E00E949C09A4
S11312E08110F5CF222009F442CEB60180E290E0CD
S11312F00E949C092A94F6CFF6018681978102C048
S11313008FEF9FEF2B96E2E10C94520AFC010590BB
S1131310615070400110D8F7809590958E0F9F1FF3
S11313200895FC016150704001900110D8F7809538
S113133090958E0F9F1F08950F931F93CF93DF9364
S1131340FB01238121FD03C08FEF9FEF2CC022FFFF
S113135016C046815781248135814217530744F4CE
S1131360A081B1819D012F5F3F4F318320838C93F6
S1131370268137812F5F3F4F3783268314C08B012B
S1131380EC01FB010084F185E02D0995892BE1F640
S1131390D80116968D919C911797019617969C9358
S11313A08E931697CE01DF91CF911F910F910895DF
S11313B0FA01AA27283051F1203181F1E8946F9382
S11313C06E7F6E5F7F4F8F4F9F4FAF4FB1E03ED028
S11313D0B4E03CD0670F781F891F9A1FA11D680FC6
S11313E0791F8A1F911DA11D6A0F711D811D911DF9
S11313F0A11D20D009F468943F912AE0269F11246E
S11314003019305D3193DEF6CF010895462F4770D1
S1131410405D4193B3E00FD0C9F7F6CF462F4F702C
S1131420405D4A3318F0495D31FD4052419302D08A
S1131430A9F7EACFB4E0A695979587957795679530
S1131440BA95C9F700976105710508959B01AC0130
S11314500A2E06945795479537952795BA95C9F757
S1131460620F731F841F951FA01D08952F923F9232
S11314704F925F926F927F928F929F92AF92BF92A0
S1131480CF92DF92EF92FF920F931F93CF93DF934C
S1131490CDB7DEB7CA1BDB0B0FB6F894DEBF0FBEA9
S11314A0CDBF09942A88398848885F846E847D84F6
S11314B08C849B84AA84B984C884DF80EE80FD80F8
S11314C00C811B81AA81B981CE0FD11D0FB6F8946E
S11114D0DEBF0FBECDBFED010895F894FFCF2F
S11314DE88130D0A4F4B0D0A0041542B4349504DAE
S11314EE4F44453D25640041542B4349504D5558B6
S11314FE3D256400415445300041540041542B4372
S113150E4950434C4F53453D310041542B43574DA5
S113151E4F44453D25640041542B43574A41503DA9
S113152E222573222C22257322000D0A574946497F
S113153E20434F4E4E45435445440D0A002B43570A
S113154E4A41503A31002B43574A41503A32002B0C
S113155E43574A41503A33002B43574A41503A3489
S113156E0041542B43495053544154555300535442
S113157E415455533A32005354415455533A33005F
S113158E5354415455533A34005354415455533AD9
S113159E35004349504D55583A300041542B434978
S11315AE504D55583F0041542B43495053544152CA
S11315BE543D22544350222C222573222C25730091
S11315CE41542B43495053544152543D22256422D5
S11315DE2C22544350222C222573222C2573004393
S11315EE4F4E4E4543540D0A0041542B434950531C
S11315FE454E443D2564000D0A4F4B0D0A3E000D29
S113160E0A53454E44204F4B0D0A00486569207617
S113161E657264656E21004B4C415220464F522038
S113162E50524F4752414D0D0A00484549205645E8
S113163E4C4B4F4D4D454E2056455244454E00455C
S113164E5350383236365F426567696E00666C6594
S113165E736B6565736B6500587065726961207A8A
S113166E003130303030003139322E3136382E34AC
S113167E332E323534006B6C6172202E2E2E007494
S10D168E6573742074657374000022
S9030000FC
